{
  "address": "0xf5c0E8FF34376066ea1267f10aDbd076843d3202",
  "abi": [
    {
      "inputs": [],
      "stateMutability": "nonpayable",
      "type": "constructor"
    },
    {
      "inputs": [
        {
          "internalType": "address",
          "name": "target",
          "type": "address"
        }
      ],
      "name": "AddressEmptyCode",
      "type": "error"
    },
    {
      "inputs": [
        {
          "internalType": "address",
          "name": "implementation",
          "type": "address"
        }
      ],
      "name": "ERC1967InvalidImplementation",
      "type": "error"
    },
    {
      "inputs": [],
      "name": "ERC1967NonPayable",
      "type": "error"
    },
    {
      "inputs": [],
      "name": "FailedCall",
      "type": "error"
    },
    {
      "inputs": [],
      "name": "InvalidInitialization",
      "type": "error"
    },
    {
      "inputs": [],
      "name": "NotInitializing",
      "type": "error"
    },
    {
      "inputs": [],
      "name": "UUPSUnauthorizedCallContext",
      "type": "error"
    },
    {
      "inputs": [
        {
          "internalType": "bytes32",
          "name": "slot",
          "type": "bytes32"
        }
      ],
      "name": "UUPSUnsupportedProxiableUUID",
      "type": "error"
    },
    {
      "anonymous": false,
      "inputs": [
        {
          "indexed": true,
          "internalType": "address",
          "name": "sender",
          "type": "address"
        },
        {
          "indexed": false,
          "internalType": "uint256",
          "name": "amount",
          "type": "uint256"
        }
      ],
      "name": "ETHDeposited",
      "type": "event"
    },
    {
      "anonymous": false,
      "inputs": [
        {
          "indexed": true,
          "internalType": "bytes32",
          "name": "callId",
          "type": "bytes32"
        },
        {
          "indexed": true,
          "internalType": "address",
          "name": "actor",
          "type": "address"
        },
        {
          "components": [
            {
              "internalType": "address",
              "name": "to",
              "type": "address"
            },
            {
              "internalType": "uint256",
              "name": "value",
              "type": "uint256"
            },
            {
              "internalType": "bytes",
              "name": "data",
              "type": "bytes"
            }
          ],
          "indexed": false,
          "internalType": "struct IDAO.Action[]",
          "name": "actions",
          "type": "tuple[]"
        },
        {
          "indexed": false,
          "internalType": "uint256",
          "name": "allowFailureMap",
          "type": "uint256"
        },
        {
          "indexed": false,
          "internalType": "uint256",
          "name": "failureMap",
          "type": "uint256"
        }
      ],
      "name": "Executed",
      "type": "event"
    },
    {
      "anonymous": false,
      "inputs": [
        {
          "indexed": false,
          "internalType": "uint64",
          "name": "version",
          "type": "uint64"
        }
      ],
      "name": "Initialized",
      "type": "event"
    },
    {
      "anonymous": false,
      "inputs": [
        {
          "indexed": true,
          "internalType": "bytes32",
          "name": "permissionId",
          "type": "bytes32"
        }
      ],
      "name": "PermissionChanged",
      "type": "event"
    },
    {
      "anonymous": false,
      "inputs": [
        {
          "indexed": true,
          "internalType": "address",
          "name": "implementation",
          "type": "address"
        }
      ],
      "name": "Upgraded",
      "type": "event"
    },
    {
      "stateMutability": "payable",
      "type": "fallback"
    },
    {
      "inputs": [],
      "name": "EXECUTE_PERMISSION_ID",
      "outputs": [
        {
          "internalType": "bytes32",
          "name": "",
          "type": "bytes32"
        }
      ],
      "stateMutability": "view",
      "type": "function"
    },
    {
      "inputs": [],
      "name": "ROOT_PERMISSION_ID",
      "outputs": [
        {
          "internalType": "bytes32",
          "name": "",
          "type": "bytes32"
        }
      ],
      "stateMutability": "view",
      "type": "function"
    },
    {
      "inputs": [],
      "name": "UPGRADE_INTERFACE_VERSION",
      "outputs": [
        {
          "internalType": "string",
          "name": "",
          "type": "string"
        }
      ],
      "stateMutability": "view",
      "type": "function"
    },
    {
      "inputs": [],
      "name": "UPGRADE_PERMISSION_ID",
      "outputs": [
        {
          "internalType": "bytes32",
          "name": "",
          "type": "bytes32"
        }
      ],
      "stateMutability": "view",
      "type": "function"
    },
    {
      "inputs": [
        {
          "internalType": "bytes32",
          "name": "callId",
          "type": "bytes32"
        },
        {
          "components": [
            {
              "internalType": "address",
              "name": "to",
              "type": "address"
            },
            {
              "internalType": "uint256",
              "name": "value",
              "type": "uint256"
            },
            {
              "internalType": "bytes",
              "name": "data",
              "type": "bytes"
            }
          ],
          "internalType": "struct IDAO.Action[]",
          "name": "actions",
          "type": "tuple[]"
        },
        {
          "internalType": "uint256",
          "name": "allowFailureMap",
          "type": "uint256"
        }
      ],
      "name": "execute",
      "outputs": [
        {
          "internalType": "bytes[]",
          "name": "results",
          "type": "bytes[]"
        },
        {
          "internalType": "uint256",
          "name": "failureMap",
          "type": "uint256"
        }
      ],
      "stateMutability": "nonpayable",
      "type": "function"
    },
    {
      "inputs": [
        {
          "internalType": "address",
          "name": "where",
          "type": "address"
        },
        {
          "internalType": "address",
          "name": "who",
          "type": "address"
        },
        {
          "internalType": "bytes32",
          "name": "permissionId",
          "type": "bytes32"
        }
      ],
      "name": "grant",
      "outputs": [],
      "stateMutability": "nonpayable",
      "type": "function"
    },
    {
      "inputs": [
        {
          "internalType": "address",
          "name": "where",
          "type": "address"
        },
        {
          "internalType": "address",
          "name": "who",
          "type": "address"
        },
        {
          "internalType": "bytes32",
          "name": "permissionId",
          "type": "bytes32"
        }
      ],
      "name": "hasPermission",
      "outputs": [
        {
          "internalType": "bool",
          "name": "",
          "type": "bool"
        }
      ],
      "stateMutability": "view",
      "type": "function"
    },
    {
      "inputs": [
        {
          "internalType": "address",
          "name": "initialOwner",
          "type": "address"
        },
        {
          "internalType": "address",
          "name": "",
          "type": "address"
        }
      ],
      "name": "initialize",
      "outputs": [],
      "stateMutability": "nonpayable",
      "type": "function"
    },
    {
      "inputs": [
        {
          "internalType": "address",
          "name": "forwarder",
          "type": "address"
        }
      ],
      "name": "isTrustedForwarder",
      "outputs": [
        {
          "internalType": "bool",
          "name": "",
          "type": "bool"
        }
      ],
      "stateMutability": "view",
      "type": "function"
    },
    {
      "inputs": [],
      "name": "proxiableUUID",
      "outputs": [
        {
          "internalType": "bytes32",
          "name": "",
          "type": "bytes32"
        }
      ],
      "stateMutability": "view",
      "type": "function"
    },
    {
      "inputs": [
        {
          "internalType": "address",
          "name": "where",
          "type": "address"
        },
        {
          "internalType": "address",
          "name": "who",
          "type": "address"
        },
        {
          "internalType": "bytes32",
          "name": "permissionId",
          "type": "bytes32"
        }
      ],
      "name": "revoke",
      "outputs": [],
      "stateMutability": "nonpayable",
      "type": "function"
    },
    {
      "inputs": [],
      "name": "trustedForwarder",
      "outputs": [
        {
          "internalType": "address",
          "name": "",
          "type": "address"
        }
      ],
      "stateMutability": "view",
      "type": "function"
    },
    {
      "inputs": [
        {
          "internalType": "address",
          "name": "newImplementation",
          "type": "address"
        },
        {
          "internalType": "bytes",
          "name": "data",
          "type": "bytes"
        }
      ],
      "name": "upgradeToAndCall",
      "outputs": [],
      "stateMutability": "payable",
      "type": "function"
    },
    {
      "inputs": [],
      "name": "version",
      "outputs": [
        {
          "internalType": "uint256",
          "name": "",
          "type": "uint256"
        }
      ],
      "stateMutability": "pure",
      "type": "function"
    },
    {
      "stateMutability": "payable",
      "type": "receive"
    }
  ],
  "transactionHash": "0x62650d5bac78f267a825abb277a244784afb5a033d7e64c02152777049ba0c62",
  "args": [],
  "numDeployments": 1,
  "solcInputHash": "26aa44b4b3c26ee085e8c6d54363c2cd",
  "bytecode": "0x60c060405230608052348015610013575f5ffd5b505f60a052610020610025565b6100d7565b7ff0c57e16840df040f15088dc2f81fe391c3923bec73e23a9662efc9c229c6a00805468010000000000000000900460ff16156100755760405163f92ee8a960e01b815260040160405180910390fd5b80546001600160401b03908116146100d45780546001600160401b0319166001600160401b0390811782556040519081527fc7f505b2f371ae2175ee4913f4499e1f2633a7b5936321eed1cdaeb6115181d29060200160405180910390a15b50565b60805160a0516115696101145f395f818161023f015281816102ea0152610e5001525f8181610bf701528181610c200152610e0601526115695ff3fe6080604052600436106100e0575f3560e01c806360f8b6d61161007e578063ad3cb1cc11610058578063ad3cb1cc14610314578063c71bf32414610369578063d68bad2c14610396578063d96054c4146103b55761011d565b806360f8b6d61461027f5780636d6712d8146102b25780637da0a877146102d15761011d565b80634f1ef286116100ba5780634f1ef286146101e957806352d1902d146101fc57806354fd4d5014610210578063572b6c05146102235761011d565b80630729d0541461014f57806309e56b1414610195578063485cc955146101c85761011d565b3661011d5760405134815233907f6c703791f399558807424f489ccd811c72b4ff0b74af547264fad7c646776df0906020015b60405180910390a2005b60405134815233907f6c703791f399558807424f489ccd811c72b4ff0b74af547264fad7c646776df090602001610113565b34801561015a575f5ffd5b506101827fbf04b4486c9663d805744005c3da000eda93de6e3308a4a7a812eb565327b78d81565b6040519081526020015b60405180910390f35b3480156101a0575f5ffd5b506101827f815fe80e4b37c8582a3b773d1d7071f983eacfd56b5965db654f3087c25ada3381565b3480156101d3575f5ffd5b506101e76101e236600461112e565b6103d4565b005b6101e76101f7366004611173565b61058a565b348015610207575f5ffd5b506101826105a9565b34801561021b575f5ffd5b506001610182565b34801561022e575f5ffd5b5061026f61023d366004611237565b7f00000000000000000000000000000000000000000000000000000000000000006001600160a01b0390811691161490565b604051901515815260200161018c565b34801561028a575f5ffd5b506101827fd5a14b802580ed4dd25c37f4587d65235454a7d1c553c5226e9ae8a88921c15d81565b3480156102bd575f5ffd5b5061026f6102cc366004611257565b6105d7565b3480156102dc575f5ffd5b506040516001600160a01b037f000000000000000000000000000000000000000000000000000000000000000016815260200161018c565b34801561031f575f5ffd5b5061035c6040518060400160405280600581526020017f352e302e3000000000000000000000000000000000000000000000000000000081525081565b60405161018c91906112bf565b348015610374575f5ffd5b506103886103833660046112d1565b61064c565b60405161018c929190611352565b3480156103a1575f5ffd5b506101e76103b0366004611257565b6109fb565b3480156103c0575f5ffd5b506101e76103cf366004611257565b610a8e565b5f6103dd610b1b565b805490915060ff68010000000000000000820416159067ffffffffffffffff165f811580156104095750825b90505f8267ffffffffffffffff1660011480156104255750303b155b905081158015610433575080155b156104515760405163f92ee8a960e01b815260040160405180910390fd5b845467ffffffffffffffff19166001178555831561048557845468ff00000000000000001916680100000000000000001785555b6001600160a01b0387166104e05760405162461bcd60e51b815260206004820152601760248201527f44414f3a207a65726f2061646472657373206f776e657200000000000000000060448201526064015b60405180910390fd5b61050b30887f815fe80e4b37c8582a3b773d1d7071f983eacfd56b5965db654f3087c25ada33610b45565b61053630887fd5a14b802580ed4dd25c37f4587d65235454a7d1c553c5226e9ae8a88921c15d610b45565b831561058157845468ff000000000000000019168555604051600181527fc7f505b2f371ae2175ee4913f4499e1f2633a7b5936321eed1cdaeb6115181d29060200160405180910390a15b50505050505050565b610592610bec565b61059b82610ca5565b6105a58282610d27565b5050565b5f6105b2610dfb565b507f360894a13ba1a3210667c828492db98dca3e2076cc3735a920a3ca505d382bbc90565b5f5f5f6106318686866040516bffffffffffffffffffffffff19606085811b8216602084015284901b166034820152604881018290525f906068016040516020818303038152906040528051906020012090509392505050565b815260208101919091526040015f205460ff16949350505050565b60605f7fbf04b4486c9663d805744005c3da000eda93de6e3308a4a7a812eb565327b78d5f5f6106d03061067e610e44565b856040516bffffffffffffffffffffffff19606085811b8216602084015284901b166034820152604881018290525f906068016040516020818303038152906040528051906020012090509392505050565b815260208101919091526040015f205460ff166107235760405162461bcd60e51b8152602060048201526011602482015270111053ce881d5b985d5d1a1bdc9a5e9959607a1b60448201526064016104d7565b846107705760405162461bcd60e51b815260206004820152600f60248201527f44414f3a206e6f20616374696f6e73000000000000000000000000000000000060448201526064016104d7565b6101008511156107c25760405162461bcd60e51b815260206004820152601560248201527f44414f3a20746f6f206d616e7920616374696f6e73000000000000000000000060448201526064016104d7565b8467ffffffffffffffff8111156107db576107db61115f565b60405190808252806020026020018201604052801561080e57816020015b60608152602001906001900390816107f95790505b5092505f5b858110156109a1575f5f88888481811061082f5761082f6113bd565b905060200281019061084191906113d1565b61084f906020810190611237565b6001600160a01b031689898581811061086a5761086a6113bd565b905060200281019061087c91906113d1565b602001358a8a86818110610892576108926113bd565b90506020028101906108a491906113d1565b6108b29060408101906113ef565b6040516108c0929190611439565b5f6040518083038185875af1925050503d805f81146108fa576040519150601f19603f3d011682016040523d82523d5f602084013e6108ff565b606091505b509150915081610979576001831b87161561092257826001901b85179450610979565b80511561093157805160208201fd5b60405162461bcd60e51b815260206004820152601260248201527f44414f3a20616374696f6e206661696c6564000000000000000000000000000060448201526064016104d7565b8086848151811061098c5761098c6113bd565b60209081029190910101525050600101610813565b506109aa610e44565b6001600160a01b0316877fa21c1be8905329795d9321c7a06217525db8c545561851608a9a987f5c1b4b7a888888876040516109e99493929190611448565b60405180910390a35094509492505050565b7f815fe80e4b37c8582a3b773d1d7071f983eacfd56b5965db654f3087c25ada335f5f610a2a3061067e610e44565b815260208101919091526040015f205460ff16610a7d5760405162461bcd60e51b8152602060048201526011602482015270111053ce881d5b985d5d1a1bdc9a5e9959607a1b60448201526064016104d7565b610a88848484610b45565b50505050565b7f815fe80e4b37c8582a3b773d1d7071f983eacfd56b5965db654f3087c25ada335f5f610abd3061067e610e44565b815260208101919091526040015f205460ff16610b105760405162461bcd60e51b8152602060048201526011602482015270111053ce881d5b985d5d1a1bdc9a5e9959607a1b60448201526064016104d7565b610a88848484610e95565b5f807ff0c57e16840df040f15088dc2f81fe391c3923bec73e23a9662efc9c229c6a005b92915050565b60408051606085811b6bffffffffffffffffffffffff199081166020808501919091529186901b166034830152604880830185905283518084039091018152606890920183528151918101919091205f818152918290529190205460ff16610a88575f81815260208190526040808220805460ff191660011790555183917fbef3389419d10c7011ed24bb36f11a55d91160bb13663ed7dd5a18ba5f6261ce91a250505050565b306001600160a01b037f0000000000000000000000000000000000000000000000000000000000000000161480610c8557507f00000000000000000000000000000000000000000000000000000000000000006001600160a01b0316610c797f360894a13ba1a3210667c828492db98dca3e2076cc3735a920a3ca505d382bbc546001600160a01b031690565b6001600160a01b031614155b15610ca35760405163703e46dd60e11b815260040160405180910390fd5b565b7fd5a14b802580ed4dd25c37f4587d65235454a7d1c553c5226e9ae8a88921c15d5f5f610cd43061067e610e44565b815260208101919091526040015f205460ff166105a55760405162461bcd60e51b8152602060048201526011602482015270111053ce881d5b985d5d1a1bdc9a5e9959607a1b60448201526064016104d7565b816001600160a01b03166352d1902d6040518163ffffffff1660e01b8152600401602060405180830381865afa925050508015610d81575060408051601f3d908101601f19168201909252610d7e91810190611545565b60015b610da957604051634c9c8ce360e01b81526001600160a01b03831660048201526024016104d7565b7f360894a13ba1a3210667c828492db98dca3e2076cc3735a920a3ca505d382bbc8114610dec57604051632a87526960e21b8152600481018290526024016104d7565b610df68383610f3a565b505050565b306001600160a01b037f00000000000000000000000000000000000000000000000000000000000000001614610ca35760405163703e46dd60e11b815260040160405180910390fd5b5f336001600160a01b037f000000000000000000000000000000000000000000000000000000000000000016148015610e7e575060143610155b15610e90575060131936013560601c90565b503390565b60408051606085811b6bffffffffffffffffffffffff199081166020808501919091529186901b166034830152604880830185905283518084039091018152606890920183528151918101919091205f818152918290529190205460ff1615610a88575f81815260208190526040808220805460ff191690555183917fbef3389419d10c7011ed24bb36f11a55d91160bb13663ed7dd5a18ba5f6261ce91a250505050565b610f4382610f8f565b6040516001600160a01b038316907fbc7cd75a20ee27fd9adebab32041f755214dbc6bffa90cc0225b39da2e5c2d3b905f90a2805115610f8757610df6828261101d565b6105a56110bd565b806001600160a01b03163b5f03610fc457604051634c9c8ce360e01b81526001600160a01b03821660048201526024016104d7565b7f360894a13ba1a3210667c828492db98dca3e2076cc3735a920a3ca505d382bbc80547fffffffffffffffffffffffff0000000000000000000000000000000000000000166001600160a01b0392909216919091179055565b60605f61102a84846110dc565b905080801561104b57505f3d118061104b57505f846001600160a01b03163b115b15611060576110586110ef565b915050610b3f565b801561108a57604051639996b31560e01b81526001600160a01b03851660048201526024016104d7565b3d1561109d57611098611108565b6110b6565b60405163d6bda27560e01b815260040160405180910390fd5b5092915050565b3415610ca35760405163b398979f60e01b815260040160405180910390fd5b5f5f5f835160208501865af49392505050565b6040513d81523d5f602083013e3d602001810160405290565b6040513d5f823e3d81fd5b80356001600160a01b0381168114611129575f5ffd5b919050565b5f5f6040838503121561113f575f5ffd5b61114883611113565b915061115660208401611113565b90509250929050565b634e487b7160e01b5f52604160045260245ffd5b5f5f60408385031215611184575f5ffd5b61118d83611113565b9150602083013567ffffffffffffffff8111156111a8575f5ffd5b8301601f810185136111b8575f5ffd5b803567ffffffffffffffff8111156111d2576111d261115f565b604051601f8201601f19908116603f0116810167ffffffffffffffff811182821017156112015761120161115f565b604052818152828201602001871015611218575f5ffd5b816020840160208301375f602083830101528093505050509250929050565b5f60208284031215611247575f5ffd5b61125082611113565b9392505050565b5f5f5f60608486031215611269575f5ffd5b61127284611113565b925061128060208501611113565b929592945050506040919091013590565b5f81518084528060208401602086015e5f602082860101526020601f19601f83011685010191505092915050565b602081525f6112506020830184611291565b5f5f5f5f606085870312156112e4575f5ffd5b84359350602085013567ffffffffffffffff811115611301575f5ffd5b8501601f81018713611311575f5ffd5b803567ffffffffffffffff811115611327575f5ffd5b8760208260051b840101111561133b575f5ffd5b949760209190910196509394604001359392505050565b5f604082016040835280855180835260608501915060608160051b8601019250602087015f5b828110156113a957605f19878603018452611394858351611291565b94506020938401939190910190600101611378565b505050506020929092019290925292915050565b634e487b7160e01b5f52603260045260245ffd5b5f8235605e198336030181126113e5575f5ffd5b9190910192915050565b5f5f8335601e19843603018112611404575f5ffd5b83018035915067ffffffffffffffff82111561141e575f5ffd5b602001915036819003821315611432575f5ffd5b9250929050565b818382375f9101908152919050565b606080825281018490525f6080600586901b830181019083018783605e1936839003015b8982101561152e57868503607f19018452823581811261148a575f5ffd5b8b016001600160a01b0361149d82611113565b16865260208181013590870152604081013536829003601e190181126114c1575f5ffd5b0160208101903567ffffffffffffffff8111156114dc575f5ffd5b8036038213156114ea575f5ffd5b60606040880152806060880152808260808901375f608082890101526080601f19601f8301168801019650505060208301925060208401935060018201915061146c565b505050506020830194909452506040015292915050565b5f60208284031215611555575f5ffd5b505191905056fea164736f6c634300081b000a",
  "devdoc": {
    "errors": {
      "AddressEmptyCode(address)": [
        {
          "details": "There's no code at `target` (it is not a contract)."
        }
      ],
      "ERC1967InvalidImplementation(address)": [
        {
          "details": "The `implementation` of the proxy is invalid."
        }
      ],
      "ERC1967NonPayable()": [
        {
          "details": "An upgrade function sees `msg.value > 0` that may be lost."
        }
      ],
      "FailedCall()": [
        {
          "details": "A call to an address target failed. The target may have reverted."
        }
      ],
      "InvalidInitialization()": [
        {
          "details": "The contract is already initialized."
        }
      ],
      "NotInitializing()": [
        {
          "details": "The contract is not initializing."
        }
      ],
      "UUPSUnauthorizedCallContext()": [
        {
          "details": "The call is from an unauthorized context."
        }
      ],
      "UUPSUnsupportedProxiableUUID(bytes32)": [
        {
          "details": "The storage `slot` is unsupported as a UUID."
        }
      ]
    },
    "events": {
      "Executed(bytes32,address,(address,uint256,bytes)[],uint256,uint256)": {
        "params": {
          "actions": "The actions that were executed",
          "actor": "The address that triggered execution",
          "allowFailureMap": "Bitmask of actions allowed to fail",
          "callId": "Unique identifier for this execution batch",
          "failureMap": "Bitmask of actions that actually failed"
        }
      },
      "Initialized(uint64)": {
        "details": "Triggered when the contract has been initialized or reinitialized."
      },
      "Upgraded(address)": {
        "details": "Emitted when the implementation is upgraded."
      }
    },
    "kind": "dev",
    "methods": {
      "constructor": {
        "custom:oz-upgrades-unsafe-allow": "constructor"
      },
      "execute(bytes32,(address,uint256,bytes)[],uint256)": {
        "details": "Only callable by addresses with EXECUTE_PERMISSION on the DAO.",
        "params": {
          "actions": "Array of actions to execute sequentially",
          "allowFailureMap": "Bitmask where bit i = 1 means action[i] is allowed to fail",
          "callId": "A unique identifier for this batch (e.g. proposal ID)"
        },
        "returns": {
          "failureMap": "Bitmask of actions that failed (subset of allowFailureMap)",
          "results": "Array of return data from each action"
        }
      },
      "hasPermission(address,address,bytes32)": {
        "params": {
          "permissionId": "The permission identifier",
          "where": "The contract address where the permission applies",
          "who": "The address to check"
        },
        "returns": {
          "_0": "True if the address has the permission"
        }
      },
      "initialize(address,address)": {
        "params": {
          "initialOwner": "Address that receives ROOT_PERMISSION and UPGRADE_PERMISSION"
        }
      },
      "proxiableUUID()": {
        "details": "Implementation of the ERC-1822 {proxiableUUID} function. This returns the storage slot used by the implementation. It is used to validate the implementation's compatibility when performing an upgrade. IMPORTANT: A proxy pointing at a proxiable contract should not be considered proxiable itself, because this risks bricking a proxy that upgrades to it, by delegating to itself until out of gas. Thus it is critical that this function revert if invoked through a proxy. This is guaranteed by the `notDelegated` modifier."
      },
      "upgradeToAndCall(address,bytes)": {
        "custom:oz-upgrades-unsafe-allow-reachable": "delegatecall",
        "details": "Upgrade the implementation of the proxy to `newImplementation`, and subsequently execute the function call encoded in `data`. Calls {_authorizeUpgrade}. Emits an {Upgraded} event."
      }
    },
    "title": "DAO",
    "version": 1
  },
  "userdoc": {
    "events": {
      "ETHDeposited(address,uint256)": {
        "notice": "Emitted when ETH is deposited into the DAO"
      },
      "Executed(bytes32,address,(address,uint256,bytes)[],uint256,uint256)": {
        "notice": "Emitted when a set of actions is executed"
      }
    },
    "kind": "user",
    "methods": {
      "execute(bytes32,(address,uint256,bytes)[],uint256)": {
        "notice": "Execute a batch of actions."
      },
      "hasPermission(address,address,bytes32)": {
        "notice": "Check if an address has a specific permission"
      },
      "initialize(address,address)": {
        "notice": "Initialize the DAO (replaces constructor for proxy deployments)"
      },
      "version()": {
        "notice": "Returns the implementation version (useful for verifying upgrades)"
      }
    },
    "notice": "UUPS-upgradeable core DAO contract. Supports treasury management, batched action execution, role-based permissions, and contract upgrades via UUPS proxy pattern.",
    "version": 1
  },
  "storageLayout": {
    "storage": [
      {
        "astId": 43768,
        "contract": "contracts/dao/DAO.sol:DAO",
        "label": "_permissions",
        "offset": 0,
        "slot": "0",
        "type": "t_mapping(t_bytes32,t_bool)"
      }
    ],
    "types": {
      "t_bool": {
        "encoding": "inplace",
        "label": "bool",
        "numberOfBytes": "1"
      },
      "t_bytes32": {
        "encoding": "inplace",
        "label": "bytes32",
        "numberOfBytes": "32"
      },
      "t_mapping(t_bytes32,t_bool)": {
        "encoding": "mapping",
        "key": "t_bytes32",
        "label": "mapping(bytes32 => bool)",
        "numberOfBytes": "32",
        "value": "t_bool"
      }
    }
  }
}