{
  "address": "0xAb116D959Da2E234a13B0e65308602144A5Ae35D",
  "abi": [
    {
      "inputs": [],
      "stateMutability": "nonpayable",
      "type": "constructor"
    },
    {
      "inputs": [
        {
          "internalType": "address",
          "name": "target",
          "type": "address"
        }
      ],
      "name": "AddressEmptyCode",
      "type": "error"
    },
    {
      "inputs": [
        {
          "internalType": "address",
          "name": "implementation",
          "type": "address"
        }
      ],
      "name": "ERC1967InvalidImplementation",
      "type": "error"
    },
    {
      "inputs": [],
      "name": "ERC1967NonPayable",
      "type": "error"
    },
    {
      "inputs": [],
      "name": "FailedCall",
      "type": "error"
    },
    {
      "inputs": [],
      "name": "InvalidInitialization",
      "type": "error"
    },
    {
      "inputs": [],
      "name": "InvalidKMSSignatures",
      "type": "error"
    },
    {
      "inputs": [],
      "name": "NotInitializing",
      "type": "error"
    },
    {
      "inputs": [
        {
          "internalType": "bytes32",
          "name": "handle",
          "type": "bytes32"
        },
        {
          "internalType": "address",
          "name": "sender",
          "type": "address"
        }
      ],
      "name": "SenderNotAllowedToUseHandle",
      "type": "error"
    },
    {
      "inputs": [],
      "name": "UUPSUnauthorizedCallContext",
      "type": "error"
    },
    {
      "inputs": [
        {
          "internalType": "bytes32",
          "name": "slot",
          "type": "bytes32"
        }
      ],
      "name": "UUPSUnsupportedProxiableUUID",
      "type": "error"
    },
    {
      "inputs": [],
      "name": "ZamaProtocolUnsupported",
      "type": "error"
    },
    {
      "anonymous": false,
      "inputs": [
        {
          "indexed": false,
          "internalType": "uint64",
          "name": "version",
          "type": "uint64"
        }
      ],
      "name": "Initialized",
      "type": "event"
    },
    {
      "anonymous": false,
      "inputs": [
        {
          "indexed": true,
          "internalType": "uint256",
          "name": "proposalId",
          "type": "uint256"
        }
      ],
      "name": "ProposalCancelled",
      "type": "event"
    },
    {
      "anonymous": false,
      "inputs": [
        {
          "indexed": true,
          "internalType": "uint256",
          "name": "proposalId",
          "type": "uint256"
        }
      ],
      "name": "ProposalCreated",
      "type": "event"
    },
    {
      "anonymous": false,
      "inputs": [
        {
          "indexed": true,
          "internalType": "uint256",
          "name": "proposalId",
          "type": "uint256"
        }
      ],
      "name": "ProposalExecuted",
      "type": "event"
    },
    {
      "anonymous": false,
      "inputs": [
        {
          "indexed": true,
          "internalType": "uint256",
          "name": "proposalId",
          "type": "uint256"
        },
        {
          "indexed": false,
          "internalType": "bool",
          "name": "approved",
          "type": "bool"
        }
      ],
      "name": "ProposalFinalized",
      "type": "event"
    },
    {
      "anonymous": false,
      "inputs": [
        {
          "indexed": true,
          "internalType": "uint256",
          "name": "proposalId",
          "type": "uint256"
        }
      ],
      "name": "ProposalRevealed",
      "type": "event"
    },
    {
      "anonymous": false,
      "inputs": [
        {
          "indexed": true,
          "internalType": "uint256",
          "name": "proposalId",
          "type": "uint256"
        }
      ],
      "name": "ProposalViewed",
      "type": "event"
    },
    {
      "anonymous": false,
      "inputs": [
        {
          "indexed": false,
          "internalType": "bytes32[]",
          "name": "handlesList",
          "type": "bytes32[]"
        },
        {
          "indexed": false,
          "internalType": "bytes",
          "name": "abiEncodedCleartexts",
          "type": "bytes"
        }
      ],
      "name": "PublicDecryptionVerified",
      "type": "event"
    },
    {
      "anonymous": false,
      "inputs": [
        {
          "indexed": true,
          "internalType": "address",
          "name": "implementation",
          "type": "address"
        }
      ],
      "name": "Upgraded",
      "type": "event"
    },
    {
      "anonymous": false,
      "inputs": [
        {
          "indexed": true,
          "internalType": "uint256",
          "name": "proposalId",
          "type": "uint256"
        }
      ],
      "name": "VoteCast",
      "type": "event"
    },
    {
      "inputs": [],
      "name": "MAX_CALLDATA_CHUNKS",
      "outputs": [
        {
          "internalType": "uint256",
          "name": "",
          "type": "uint256"
        }
      ],
      "stateMutability": "view",
      "type": "function"
    },
    {
      "inputs": [],
      "name": "UPGRADE_INTERFACE_VERSION",
      "outputs": [
        {
          "internalType": "string",
          "name": "",
          "type": "string"
        }
      ],
      "stateMutability": "view",
      "type": "function"
    },
    {
      "inputs": [
        {
          "internalType": "uint256",
          "name": "proposalId",
          "type": "uint256"
        },
        {
          "internalType": "bytes32",
          "name": "cancelKey",
          "type": "bytes32"
        }
      ],
      "name": "cancel",
      "outputs": [],
      "stateMutability": "nonpayable",
      "type": "function"
    },
    {
      "inputs": [
        {
          "internalType": "bytes32[]",
          "name": "encHandles",
          "type": "bytes32[]"
        },
        {
          "internalType": "bytes",
          "name": "inputProof",
          "type": "bytes"
        },
        {
          "internalType": "bytes32",
          "name": "cancelKeyHash",
          "type": "bytes32"
        },
        {
          "components": [
            {
              "internalType": "uint64",
              "name": "startDate",
              "type": "uint64"
            },
            {
              "internalType": "uint64",
              "name": "endDate",
              "type": "uint64"
            }
          ],
          "internalType": "struct EncryptedTokenVoting.ProposalParams",
          "name": "params",
          "type": "tuple"
        }
      ],
      "name": "createProposal",
      "outputs": [
        {
          "internalType": "uint256",
          "name": "proposalId",
          "type": "uint256"
        }
      ],
      "stateMutability": "nonpayable",
      "type": "function"
    },
    {
      "inputs": [],
      "name": "dao",
      "outputs": [
        {
          "internalType": "contract IDAO",
          "name": "",
          "type": "address"
        }
      ],
      "stateMutability": "view",
      "type": "function"
    },
    {
      "inputs": [
        {
          "internalType": "uint256",
          "name": "proposalId",
          "type": "uint256"
        },
        {
          "internalType": "uint256",
          "name": "allowFailureMap",
          "type": "uint256"
        }
      ],
      "name": "execute",
      "outputs": [],
      "stateMutability": "nonpayable",
      "type": "function"
    },
    {
      "inputs": [
        {
          "internalType": "uint256",
          "name": "proposalId",
          "type": "uint256"
        },
        {
          "internalType": "bytes",
          "name": "decryptionProof",
          "type": "bytes"
        },
        {
          "internalType": "bytes",
          "name": "abiEncodedCleartexts",
          "type": "bytes"
        }
      ],
      "name": "finalize",
      "outputs": [],
      "stateMutability": "nonpayable",
      "type": "function"
    },
    {
      "inputs": [
        {
          "internalType": "uint256",
          "name": "proposalId",
          "type": "uint256"
        }
      ],
      "name": "getProposalInfo",
      "outputs": [
        {
          "internalType": "uint256",
          "name": "snapshotId",
          "type": "uint256"
        },
        {
          "internalType": "uint64",
          "name": "voteStart",
          "type": "uint64"
        },
        {
          "internalType": "uint64",
          "name": "voteEnd",
          "type": "uint64"
        },
        {
          "internalType": "uint256",
          "name": "chunkCount",
          "type": "uint256"
        },
        {
          "internalType": "bool",
          "name": "finalized",
          "type": "bool"
        },
        {
          "internalType": "bool",
          "name": "resultApproved",
          "type": "bool"
        },
        {
          "internalType": "bool",
          "name": "revealed",
          "type": "bool"
        },
        {
          "internalType": "bool",
          "name": "executed",
          "type": "bool"
        },
        {
          "internalType": "bool",
          "name": "cancelled",
          "type": "bool"
        }
      ],
      "stateMutability": "view",
      "type": "function"
    },
    {
      "inputs": [
        {
          "internalType": "uint256",
          "name": "proposalId",
          "type": "uint256"
        }
      ],
      "name": "getRevealedChunks",
      "outputs": [
        {
          "internalType": "uint256[]",
          "name": "",
          "type": "uint256[]"
        }
      ],
      "stateMutability": "view",
      "type": "function"
    },
    {
      "inputs": [],
      "name": "governanceToken",
      "outputs": [
        {
          "internalType": "contract EncryptedGovernanceToken",
          "name": "",
          "type": "address"
        }
      ],
      "stateMutability": "view",
      "type": "function"
    },
    {
      "inputs": [
        {
          "internalType": "uint256",
          "name": "proposalId",
          "type": "uint256"
        },
        {
          "internalType": "address",
          "name": "voter",
          "type": "address"
        }
      ],
      "name": "hasVoted",
      "outputs": [
        {
          "internalType": "bool",
          "name": "",
          "type": "bool"
        }
      ],
      "stateMutability": "view",
      "type": "function"
    },
    {
      "inputs": [
        {
          "internalType": "contract IDAO",
          "name": "_dao",
          "type": "address"
        },
        {
          "internalType": "contract EncryptedGovernanceToken",
          "name": "_token",
          "type": "address"
        },
        {
          "internalType": "uint64",
          "name": "_votingDuration",
          "type": "uint64"
        },
        {
          "internalType": "uint64",
          "name": "_minQuorumPct",
          "type": "uint64"
        },
        {
          "internalType": "uint64",
          "name": "_minSupportPct",
          "type": "uint64"
        },
        {
          "internalType": "uint64",
          "name": "_minProposerBalance",
          "type": "uint64"
        },
        {
          "internalType": "address",
          "name": "",
          "type": "address"
        }
      ],
      "name": "initialize",
      "outputs": [],
      "stateMutability": "nonpayable",
      "type": "function"
    },
    {
      "inputs": [
        {
          "internalType": "address",
          "name": "forwarder",
          "type": "address"
        }
      ],
      "name": "isTrustedForwarder",
      "outputs": [
        {
          "internalType": "bool",
          "name": "",
          "type": "bool"
        }
      ],
      "stateMutability": "view",
      "type": "function"
    },
    {
      "inputs": [],
      "name": "minProposerBalance",
      "outputs": [
        {
          "internalType": "uint64",
          "name": "",
          "type": "uint64"
        }
      ],
      "stateMutability": "view",
      "type": "function"
    },
    {
      "inputs": [],
      "name": "minQuorumPct",
      "outputs": [
        {
          "internalType": "uint64",
          "name": "",
          "type": "uint64"
        }
      ],
      "stateMutability": "view",
      "type": "function"
    },
    {
      "inputs": [],
      "name": "minSupportPct",
      "outputs": [
        {
          "internalType": "uint64",
          "name": "",
          "type": "uint64"
        }
      ],
      "stateMutability": "view",
      "type": "function"
    },
    {
      "inputs": [],
      "name": "proposalCount",
      "outputs": [
        {
          "internalType": "uint256",
          "name": "",
          "type": "uint256"
        }
      ],
      "stateMutability": "view",
      "type": "function"
    },
    {
      "inputs": [],
      "name": "proxiableUUID",
      "outputs": [
        {
          "internalType": "bytes32",
          "name": "",
          "type": "bytes32"
        }
      ],
      "stateMutability": "view",
      "type": "function"
    },
    {
      "inputs": [
        {
          "internalType": "uint256",
          "name": "proposalId",
          "type": "uint256"
        },
        {
          "internalType": "bytes",
          "name": "decryptionProof",
          "type": "bytes"
        },
        {
          "internalType": "bytes",
          "name": "abiEncodedCleartexts",
          "type": "bytes"
        }
      ],
      "name": "revealProposal",
      "outputs": [],
      "stateMutability": "nonpayable",
      "type": "function"
    },
    {
      "inputs": [
        {
          "internalType": "uint256",
          "name": "proposalId",
          "type": "uint256"
        }
      ],
      "name": "state",
      "outputs": [
        {
          "internalType": "enum EncryptedTokenVoting.ProposalState",
          "name": "",
          "type": "uint8"
        }
      ],
      "stateMutability": "view",
      "type": "function"
    },
    {
      "inputs": [],
      "name": "trustedForwarder",
      "outputs": [
        {
          "internalType": "address",
          "name": "",
          "type": "address"
        }
      ],
      "stateMutability": "view",
      "type": "function"
    },
    {
      "inputs": [
        {
          "internalType": "address",
          "name": "newImplementation",
          "type": "address"
        },
        {
          "internalType": "bytes",
          "name": "data",
          "type": "bytes"
        }
      ],
      "name": "upgradeToAndCall",
      "outputs": [],
      "stateMutability": "payable",
      "type": "function"
    },
    {
      "inputs": [],
      "name": "version",
      "outputs": [
        {
          "internalType": "uint256",
          "name": "",
          "type": "uint256"
        }
      ],
      "stateMutability": "pure",
      "type": "function"
    },
    {
      "inputs": [
        {
          "internalType": "uint256",
          "name": "proposalId",
          "type": "uint256"
        }
      ],
      "name": "viewProposal",
      "outputs": [],
      "stateMutability": "nonpayable",
      "type": "function"
    },
    {
      "inputs": [
        {
          "internalType": "uint256",
          "name": "proposalId",
          "type": "uint256"
        },
        {
          "internalType": "externalEbool",
          "name": "encryptedVote",
          "type": "bytes32"
        },
        {
          "internalType": "bytes",
          "name": "inputProof",
          "type": "bytes"
        }
      ],
      "name": "vote",
      "outputs": [],
      "stateMutability": "nonpayable",
      "type": "function"
    },
    {
      "inputs": [],
      "name": "votingDuration",
      "outputs": [
        {
          "internalType": "uint64",
          "name": "",
          "type": "uint64"
        }
      ],
      "stateMutability": "view",
      "type": "function"
    }
  ],
  "transactionHash": "0xb302ae11495dead1bf7beb88bbdfb0288a724e5151fa6006232e93a61df80b7b",
  "args": [],
  "numDeployments": 1,
  "solcInputHash": "26aa44b4b3c26ee085e8c6d54363c2cd",
  "bytecode": "0x60c060405230608052348015610013575f5ffd5b505f60a052610020610025565b6100d7565b7ff0c57e16840df040f15088dc2f81fe391c3923bec73e23a9662efc9c229c6a00805468010000000000000000900460ff16156100755760405163f92ee8a960e01b815260040160405180910390fd5b80546001600160401b03908116146100d45780546001600160401b0319166001600160401b0390811782556040519081527fc7f505b2f371ae2175ee4913f4499e1f2633a7b5936321eed1cdaeb6115181d29060200160405180910390a15b50565b60805160a051613eb76101145f395f818161039b015281816103f801526123c601525f81816124e30152818161250c01526126cc0152613eb75ff3fe608060405260043610610199575f3560e01c80635eff1bb8116100dc578063c5ea723311610087578063da35c66411610062578063da35c6641461058c578063e3fec1d0146105a1578063eafb64d5146105c0578063f96dae0a146105df575f5ffd5b8063c5ea723314610522578063cde9cd6414610541578063d5d53e381461056d575f5ffd5b8063ad3cb1cc116100b7578063ad3cb1cc14610442578063b6e1395f14610497578063bc903cb8146104ab575f5ffd5b80635eff1bb8146103cb5780637da0a877146103ea57806383811f551461041c575f5ffd5b8063438596321161014757806354600e881161012257806354600e881461032e57806354fd4d501461034d5780635601eaea14610360578063572b6c051461037f575f5ffd5b806343859632146102d65780634f1ef2861461030557806352d1902d1461031a575f5ffd5b80633e4f49e6116101775780633e4f49e61461023957806340c83f2a146102655780634162169f146102a0575f5ffd5b80630be7dffc1461019d5780630e3ed2a0146101cf578063132002fc1461021a575b5f5ffd5b3480156101a8575f5ffd5b506101bc6101b7366004613455565b6105fe565b6040519081526020015b60405180910390f35b3480156101da575f5ffd5b506003546102029070010000000000000000000000000000000090046001600160401b031681565b6040516001600160401b0390911681526020016101c6565b348015610225575f5ffd5b50600354610202906001600160401b031681565b348015610244575f5ffd5b50610258610253366004613509565b610b1d565b6040516101c69190613534565b348015610270575f5ffd5b5060035461020290780100000000000000000000000000000000000000000000000090046001600160401b031681565b3480156102ab575f5ffd5b505f546102be906001600160a01b031681565b6040516001600160a01b0390911681526020016101c6565b3480156102e1575f5ffd5b506102f56102f0366004613562565b610c55565b60405190151581526020016101c6565b610318610313366004613622565b610c81565b005b348015610325575f5ffd5b506101bc610ca0565b348015610339575f5ffd5b506103186103483660046136c2565b610cce565b348015610358575f5ffd5b5060016101bc565b34801561036b575f5ffd5b5061031861037a366004613753565b6110a2565b34801561038a575f5ffd5b506102f5610399366004613773565b7f00000000000000000000000000000000000000000000000000000000000000006001600160a01b0390811691161490565b3480156103d6575f5ffd5b506103186103e536600461378e565b611355565b3480156103f5575f5ffd5b507f00000000000000000000000000000000000000000000000000000000000000006102be565b348015610427575f5ffd5b5060035461020290600160401b90046001600160401b031681565b34801561044d575f5ffd5b5061048a6040518060400160405280600581526020017f352e302e3000000000000000000000000000000000000000000000000000000081525081565b6040516101c6919061380a565b3480156104a2575f5ffd5b506101bc601881565b3480156104b6575f5ffd5b506104ca6104c5366004613509565b6116d9565b60408051998a526001600160401b0398891660208b0152969097169588019590955260608701939093529015156080860152151560a0850152151560c0840152151560e08301521515610100820152610120016101c6565b34801561052d575f5ffd5b5061031861053c36600461381c565b6117a4565b34801561054c575f5ffd5b5061056061055b366004613509565b611b48565b6040516101c69190613893565b348015610578575f5ffd5b5061031861058736600461381c565b611c4c565b348015610597575f5ffd5b506101bc60025481565b3480156105ac575f5ffd5b506103186105bb366004613509565b611fd9565b3480156105cb575f5ffd5b506103186105da366004613753565b6121f7565b3480156105ea575f5ffd5b506001546102be906001600160a01b031681565b5f85806106525760405162461bcd60e51b815260206004820152601260248201527f4e6f2063616c6c64617461206368756e6b73000000000000000000000000000060448201526064015b60405180910390fd5b60188111156106a35760405162461bcd60e51b815260206004820152600f60248201527f546f6f206d616e79206368756e6b7300000000000000000000000000000000006044820152606401610649565b836106f05760405162461bcd60e51b815260206004820152601260248201527f496e76616c69642063616e63656c206b657900000000000000000000000000006044820152606401610649565b60028054905f6106ff836138e9565b919050555060025491505f6107126123ba565b90505f5b828110156107b7575f6107768b8b8481811061073457610734613901565b905060200201358a8a8080601f0160208091040260200160405190810160405280939291908181526020018383808284375f9201919091525061240b92505050565b905061078181612471565b5061078c8184612491565b505f858152600660209081526040822080546001818101835591845291909220019190915501610716565b50600154604080516301504d8f60e41b815290515f926001600160a01b031691631504d8f0916004808301926020929190829003018187875af1158015610800573d5f5f3e3d5ffd5b505050506040513d601f19601f820116820180604052508101906108249190613915565b90505f6108305f6124b4565b90505f61083c5f6124b4565b9050610847826124c9565b50610851816124c9565b505f610860602089018961392c565b6001600160401b0316156108805761087b602089018961392c565b610882565b425b90505f61089560408a0160208b0161392c565b6001600160401b0316156108b8576108b360408a0160208b0161392c565b6108ce565b6003546108ce906001600160401b031683613947565b9050816001600160401b0316816001600160401b0316116109315760405162461bcd60e51b815260206004820152600d60248201527f496e76616c6964206461746573000000000000000000000000000000000000006044820152606401610649565b604051806101800160405280868152602001836001600160401b03168152602001826001600160401b031681526020018581526020018481526020018881526020015f151581526020015f151581526020015f151581526020015f151581526020015f151581526020018b81525060045f8a81526020019081526020015f205f820151815f01556020820151816001015f6101000a8154816001600160401b0302191690836001600160401b0316021790555060408201518160010160086101000a8154816001600160401b0302191690836001600160401b03160217905550606082015181600201556080820151816003015560a0820151816004015560c0820151816005015f6101000a81548160ff02191690831515021790555060e08201518160050160016101000a81548160ff0219169083151502179055506101008201518160050160026101000a81548160ff0219169083151502179055506101208201518160050160036101000a81548160ff0219169083151502179055506101408201518160050160046101000a81548160ff0219169083151502179055506101608201518160060155905050877fc2c021f5d73c63c481d336fbbafec58f694fc45095f00b02d2deb8cca59afe0760405160405180910390a2505050505050509695505050505050565b5f5f82118015610b2f57506002548211155b610b6e5760405162461bcd60e51b815260206004820152601060248201526f125b9d985b1a59081c1c9bdc1bdcd85b60821b6044820152606401610649565b5f8281526004602052604090206005810154640100000000900460ff1615610b995750600692915050565b60058101546301000000900460ff1615610bb65750600592915050565b600581015462010000900460ff1615610bd25750600492915050565b600581015460ff168015610bef57506005810154610100900460ff165b15610bfd5750600292915050565b600581015460ff168015610c1b57506005810154610100900460ff16155b15610c295750600392915050565b6001810154600160401b90046001600160401b03164211610c4c57505f92915050565b50600192915050565b5f8281526005602090815260408083206001600160a01b038516845290915290205460ff165b92915050565b610c896124d8565b610c9282612591565b610c9c82826125ed565b5050565b5f610ca96126c1565b507f360894a13ba1a3210667c828492db98dca3e2076cc3735a920a3ca505d382bbc90565b5f610cd761270a565b805490915060ff600160401b82041615906001600160401b03165f81158015610cfd5750825b90505f826001600160401b03166001148015610d185750303b155b905081158015610d26575080155b15610d445760405163f92ee8a960e01b815260040160405180910390fd5b845467ffffffffffffffff191660011785558315610d7357845468ff00000000000000001916600160401b1785555b6001600160a01b038c16610dc95760405162461bcd60e51b815260206004820152600b60248201527f496e76616c69642044414f0000000000000000000000000000000000000000006044820152606401610649565b6001600160a01b038b16610e1f5760405162461bcd60e51b815260206004820152600d60248201527f496e76616c696420746f6b656e000000000000000000000000000000000000006044820152606401610649565b5f8a6001600160401b031611610e775760405162461bcd60e51b815260206004820152601760248201527f496e76616c696420766f74696e67206475726174696f6e0000000000000000006044820152606401610649565b5f896001600160401b0316118015610e9957506064896001600160401b031611155b610ee55760405162461bcd60e51b815260206004820152600e60248201527f496e76616c69642071756f72756d0000000000000000000000000000000000006044820152606401610649565b5f886001600160401b0316118015610f0757506064886001600160401b031611155b610f535760405162461bcd60e51b815260206004820152600f60248201527f496e76616c696420737570706f727400000000000000000000000000000000006044820152606401610649565b610f63610f5e612732565b6128e1565b8b5f5f6101000a8154816001600160a01b0302191690836001600160a01b031602179055508a60015f6101000a8154816001600160a01b0302191690836001600160a01b031602179055508960035f6101000a8154816001600160401b0302191690836001600160401b0316021790555088600360086101000a8154816001600160401b0302191690836001600160401b0316021790555087600360106101000a8154816001600160401b0302191690836001600160401b0316021790555086600360186101000a8154816001600160401b0302191690836001600160401b03160217905550831561109457845468ff000000000000000019168555604051600181527fc7f505b2f371ae2175ee4913f4499e1f2633a7b5936321eed1cdaeb6115181d29060200160405180910390a15b505050505050505050505050565b5f821180156110b357506002548211155b6110f25760405162461bcd60e51b815260206004820152601060248201526f125b9d985b1a59081c1c9bdc1bdcd85b60821b6044820152606401610649565b5f828152600460205260409020600581015462010000900460ff166111485760405162461bcd60e51b815260206004820152600c60248201526b139bdd081c995d99585b195960a21b6044820152606401610649565b60058101546301000000900460ff16156111975760405162461bcd60e51b815260206004820152601060248201526f105b1c9958591e48195e1958dd5d195960821b6044820152606401610649565b6005810154640100000000900460ff16156111e05760405162461bcd60e51b815260206004820152600960248201526810d85b98d95b1b195960ba1b6044820152606401610649565b60058101805463ff000000191663010000001790555f8381526007602090815260408220805490929091611215908390613966565b6001600160401b0381111561122c5761122c613590565b6040519080825280601f01601f191660200182016040528015611256576020820181803683370190505b5090505f5b82811015611294575f84828154811061127657611276613901565b5f91825260209182902001548382028501909101525060010161125b565b505f818060200190518101906112aa91906139ec565b5f546040516331c6fcc960e21b81529192506001600160a01b03169063c71bf324906112de908a9085908b90600401613af0565b5f604051808303815f875af11580156112f9573d5f5f3e3d5ffd5b505050506040513d5f823e601f3d908101601f191682016040526113209190810190613b8c565b505060405187907f712ae1383f79ac853f8d882153778e0260ef8f03b504e2866e0593e04d2b291f905f90a250505050505050565b5f8411801561136657506002548411155b6113a55760405162461bcd60e51b815260206004820152601060248201526f125b9d985b1a59081c1c9bdc1bdcd85b60821b6044820152606401610649565b5f84815260046020526040902060018101546001600160401b031642108015906113e357506001810154600160401b90046001600160401b03164211155b61142f5760405162461bcd60e51b815260206004820152601160248201527f566f74696e67206e6f74206163746976650000000000000000000000000000006044820152606401610649565b6005810154640100000000900460ff161561148c5760405162461bcd60e51b815260206004820152601260248201527f50726f706f73616c2063616e63656c6c656400000000000000000000000000006044820152606401610649565b5f6114956123ba565b5f8781526005602090815260408083206001600160a01b038516845290915290205490915060ff161561150a5760405162461bcd60e51b815260206004820152600d60248201527f416c726561647920766f746564000000000000000000000000000000000000006044820152606401610649565b5f8681526005602090815260408083206001600160a01b03851684528252808320805460ff191660011790558051601f87018390048302810183019091528581526115719188919088908890819084018382808284375f9201919091525061298492505050565b6001548454604051633eba887360e11b815260048101919091526001600160a01b0385811660248301529293505f9290911690637d7510e6906044016020604051808303815f875af11580156115c9573d5f5f3e3d5ffd5b505050506040513d601f19601f820116820180604052508101906115ed9190613915565b90505f6115f95f6124b4565b90505f6116078484846129aa565b90505f6116158584866129aa565b90506116258760020154836129f3565b6002880155600387015461163990826129f3565b6003880155600287015461164c906124c9565b5061165a87600301546124c9565b505f8b8152600660205260408120905b81548110156116a05761169782828154811061168857611688613901565b905f5260205f20015489612491565b5060010161166a565b506040518c907f9593d9bd30eff4872ec3bab10360ad82eaac80651801e68f47f0674c38415c3d905f90a2505050505050505050505050565b5f5f5f5f5f5f5f5f5f5f8a1180156116f357506002548a11155b6117325760405162461bcd60e51b815260206004820152601060248201526f125b9d985b1a59081c1c9bdc1bdcd85b60821b6044820152606401610649565b5050505f9687525050600460208190526040909520805460018201549682015460059092015490976001600160401b0380891698600160401b900416965091945060ff808216945061010082048116935062010000820481169263010000008304821692640100000000900490911690565b5f851180156117b557506002548511155b6117f45760405162461bcd60e51b815260206004820152601060248201526f125b9d985b1a59081c1c9bdc1bdcd85b60821b6044820152606401610649565b5f858152600460205260409020600581015460ff16801561181e57506005810154610100900460ff165b61186a5760405162461bcd60e51b815260206004820152600c60248201527f4e6f7420617070726f76656400000000000000000000000000000000000000006044820152606401610649565b600581015462010000900460ff16156118c55760405162461bcd60e51b815260206004820152601060248201527f416c72656164792072657665616c6564000000000000000000000000000000006044820152606401610649565b6005810154640100000000900460ff161561190e5760405162461bcd60e51b815260206004820152600960248201526810d85b98d95b1b195960ba1b6044820152606401610649565b5f86815260066020526040812080549091816001600160401b0381111561193757611937613590565b604051908082528060200260200182016040528015611960578160200160208202803683370190505b5090505f5b828110156119d75761199084828154811061198257611982613901565b905f5260205f200154612a21565b506119b28482815481106119a6576119a6613901565b905f5260205f20015490565b8282815181106119c4576119c4613901565b6020908102919091010152600101611965565b50611a4a8187878080601f0160208091040260200160405190810160405280939291908181526020018383808284375f9201919091525050604080516020601f8f018190048102820181019092528d815292508d91508c90819084018382808284375f92019190915250612a3c92505050565b5f611a5786880188613c45565b905082815114611aa95760405162461bcd60e51b815260206004820152601460248201527f4368756e6b20636f756e74206d69736d617463680000000000000000000000006044820152606401610649565b5f5b83811015611afe575f8b81526007602052604090208251839083908110611ad457611ad4613901565b6020908102919091018101518254600181810185555f948552929093209092019190915501611aab565b5060058501805462ff00001916620100001790556040518a907f31f52d36d0123528dd36b24cc021da89f973c5d6b27a34ed59fcb1684e40ffdb905f90a250505050505050505050565b60605f82118015611b5b57506002548211155b611b9a5760405162461bcd60e51b815260206004820152601060248201526f125b9d985b1a59081c1c9bdc1bdcd85b60821b6044820152606401610649565b5f8281526004602052604090206005015462010000900460ff16611bef5760405162461bcd60e51b815260206004820152600c60248201526b139bdd081c995d99585b195960a21b6044820152606401610649565b5f8281526007602090815260409182902080548351818402810184019094528084529091830182828015611c4057602002820191905f5260205f20905b815481526020019060010190808311611c2c575b50505050509050919050565b5f85118015611c5d57506002548511155b611c9c5760405162461bcd60e51b815260206004820152601060248201526f125b9d985b1a59081c1c9bdc1bdcd85b60821b6044820152606401610649565b5f858152600460205260409020600581015460ff1615611cfe5760405162461bcd60e51b815260206004820152601160248201527f416c72656164792066696e616c697a65640000000000000000000000000000006044820152606401610649565b6005810154640100000000900460ff1615611d475760405162461bcd60e51b815260206004820152600960248201526810d85b98d95b1b195960ba1b6044820152606401610649565b6001810154600160401b90046001600160401b03164211611daa5760405162461bcd60e51b815260206004820152601060248201527f566f74696e67206e6f7420656e646564000000000000000000000000000000006044820152606401610649565b600154604080516318160ddd60e01b815290515f926001600160a01b0316916318160ddd9160048083019260209291908290030181865afa158015611df1573d5f5f3e3d5ffd5b505050506040513d601f19601f82011682018060405250810190611e159190613ccb565b6003549091505f90606490611e3a90600160401b90046001600160401b031684613ce6565b611e449190613d08565b90505f611e59846002015485600301546129f3565b90505f611e668284612aa7565b90505f611e7b86600201548760030154612ace565b90505f611e888383612afc565b9050611e9381612b2a565b506040805160018082528183019092525f916020808301908036833701905050905081815f81518110611ec857611ec8613901565b602002602001018181525050611f57818b8b8080601f0160208091040260200160405190810160405280939291908181526020018383808284375f81840152601f19601f820116905080830192505050505050508e8e8080601f0160208091040260200160405190810160405280939291908181526020018383808284375f92019190915250612a3c92505050565b60058801805460ff19166001179055611f72898b018b613d4e565b60058901805461ff0019166101009215158302179081905560405160ff9290910491909116151581528d907fb5ac567fcf1b069e0235e4f16734625c6cf54c1b40517fd9eb85517f6e1265a79060200160405180910390a250505050505050505050505050565b5f81118015611fea57506002548111155b6120295760405162461bcd60e51b815260206004820152601060248201526f125b9d985b1a59081c1c9bdc1bdcd85b60821b6044820152606401610649565b6001546001600160a01b03166365731fe96120426123ba565b6040517fffffffff0000000000000000000000000000000000000000000000000000000060e084901b1681526001600160a01b039091166004820152602401602060405180830381865afa15801561209c573d5f5f3e3d5ffd5b505050506040513d601f19601f820116820180604052508101906120c09190613d69565b61210c5760405162461bcd60e51b815260206004820152601260248201527f4e6f74206120746f6b656e20686f6c64657200000000000000000000000000006044820152606401610649565b5f8181526004602052604090206005810154640100000000900460ff16156121765760405162461bcd60e51b815260206004820152601260248201527f50726f706f73616c2063616e63656c6c656400000000000000000000000000006044820152606401610649565b5f61217f6123ba565b5f8481526006602052604081209192505b81548110156121c6576121bd8282815481106121ae576121ae613901565b905f5260205f20015484612491565b50600101612190565b5060405184907f96b353b405f52a412589b7b8556b441fac1e04c0263834ce2e02c7014bfc4629905f90a250505050565b5f8211801561220857506002548211155b6122475760405162461bcd60e51b815260206004820152601060248201526f125b9d985b1a59081c1c9bdc1bdcd85b60821b6044820152606401610649565b5f82815260046020526040902060058101546301000000900460ff16156122a35760405162461bcd60e51b815260206004820152601060248201526f105b1c9958591e48195e1958dd5d195960821b6044820152606401610649565b6005810154640100000000900460ff16156123005760405162461bcd60e51b815260206004820152601160248201527f416c72656164792063616e63656c6c65640000000000000000000000000000006044820152606401610649565b600681015460408051602081018590520160405160208183030381529060405280519060200120146123745760405162461bcd60e51b815260206004820152601260248201527f496e76616c69642063616e63656c206b657900000000000000000000000000006044820152606401610649565b60058101805464ff00000000191664010000000017905560405183907f416e669c63d9a3a5e36ee7cc7e2104b8db28ccd286aa18966e98fa230c73b08c905f90a2505050565b5f336001600160a01b037f0000000000000000000000000000000000000000000000000000000000000000161480156123f4575060143610155b15612406575060131936013560601c90565b503390565b5f81515f146124275761242083836008612b39565b9050610c7b565b825f819003612441576124395f612c46565b915050610c7b565b61244b8133612c52565b61242057604051630276b5d960e01b815260048101829052336024820152604401610649565b5f81612483576124805f612c46565b91505b61248d8230612cde565b5090565b5f826124a3576124a05f612c46565b92505b6124ad8383612cde565b5090919050565b5f610c7b826001600160401b03166005612d52565b5f81612483576124805f6124b4565b306001600160a01b037f000000000000000000000000000000000000000000000000000000000000000016148061257157507f00000000000000000000000000000000000000000000000000000000000000006001600160a01b03166125657f360894a13ba1a3210667c828492db98dca3e2076cc3735a920a3ca505d382bbc546001600160a01b031690565b6001600160a01b031614155b1561258f5760405163703e46dd60e11b815260040160405180910390fd5b565b5f546001600160a01b031633146125ea5760405162461bcd60e51b815260206004820152600c60248201527f4f6e6c79207669612044414f00000000000000000000000000000000000000006044820152606401610649565b50565b816001600160a01b03166352d1902d6040518163ffffffff1660e01b8152600401602060405180830381865afa925050508015612647575060408051601f3d908101601f1916820190925261264491810190613915565b60015b61266f57604051634c9c8ce360e01b81526001600160a01b0383166004820152602401610649565b7f360894a13ba1a3210667c828492db98dca3e2076cc3735a920a3ca505d382bbc81146126b257604051632a87526960e21b815260048101829052602401610649565b6126bc8383612df4565b505050565b306001600160a01b037f0000000000000000000000000000000000000000000000000000000000000000161461258f5760405163703e46dd60e11b815260040160405180910390fd5b5f807ff0c57e16840df040f15088dc2f81fe391c3923bec73e23a9662efc9c229c6a00610c7b565b604080516060810182525f8082526020820181905291810191909152466001036127cb575060408051606080820183525f8083526020808401829052928401528251908101835273ca2e8f1f656cd25c01f05d0b243ab1ecd4a8ffb6815273d82385dada1ae3e969447f20a3164f6213100e75918101919091527377627828a55156b04ac0dc0eb30467f1a552bb039181019190915290565b4662aa36a70361284a575060408051606080820183525f8083526020808401829052928401528251908101835273f0ffdc93b7e186bc2f8cb3daa75d86d1930a433d81527392c920834ec8941d2c77d188936e1f7a6f49c1279181019190915273be0e383937d564d7ff0bc3b46c51f0bf8d5c311a9181019190915290565b46617a69036128c8575060408051606080820183525f808352602080840182905292840152825190810183527350157cffd6bbfa2dece204a89ec419c23ef5755d815273e3a9105a3a932253a70f126eb1e3b589c643dd249181019190915273be0e383937d564d7ff0bc3b46c51f0bf8d5c311a9181019190915290565b6040516373cac13b60e01b815260040160405180910390fd5b80515f516020613e8b5f395f51905f52805473ffffffffffffffffffffffffffffffffffffffff199081166001600160a01b039384161790915560208301517f9e7b61f58c47dc699ac88507c4f5bb9f121c03808c5676a8078fe583e46497018054831691841691909117905560408301517f9e7b61f58c47dc699ac88507c4f5bb9f121c03808c5676a8078fe583e46497028054909216921691909117905550565b5f81515f146129985761242083835f612b39565b825f819003612441576124395f612e49565b5f836129bc576129b95f612e49565b93505b826129cd576129ca5f6124b4565b92505b816129de576129db5f6124b4565b91505b6129e9848484612e64565b90505b9392505050565b5f82612a0557612a025f6124b4565b92505b81612a1657612a135f6124b4565b91505b6129ec83835f612efa565b5f81612a3357612a305f612c46565b91505b61248d82612fca565b5f612a48848484613048565b905080612a685760405163cf6c44e960e01b815260040160405180910390fd5b7fc6366bab028b8d033cb362cfd1f2f3457ef4e92fc738b6788b90d5a7846367a08484604051612a99929190613dbe565b60405180910390a150505050565b5f82612ab957612ab65f6124b4565b92505b6129ec836001600160401b03841660016130ec565b5f82612ae057612add5f6124b4565b92505b81612af157612aee5f6124b4565b91505b6129ec83835f613176565b5f82612b0e57612b0b5f612e49565b92505b81612b1f57612b1c5f612e49565b91505b6129ec83835f613200565b5f81612a3357612a305f612e49565b7f9e7b61f58c47dc699ac88507c4f5bb9f121c03808c5676a8078fe583e46497015460405163045fc19560e11b81525f915f516020613e8b5f395f51905f52916001600160a01b03909116906308bf832a90612b9f908890339089908990600401613df6565b6020604051808303815f875af1158015612bbb573d5f5f3e3d5ffd5b505050506040513d601f19601f82011682018060405250810190612bdf9190613915565b8154604051630f8e573b60e21b8152600481018390523360248201529193506001600160a01b031690633e395cec906044015f604051808303815f87803b158015612c28575f5ffd5b505af1158015612c3a573d5f5f3e3d5ffd5b50505050509392505050565b5f610c7b826008612d52565b5f805f516020613e8b5f395f51905f5280546040516382027b6d60e01b8152600481018790526001600160a01b0386811660248301529293509116906382027b6d90604401602060405180830381865afa158015612cb2573d5f5f3e3d5ffd5b505050506040513d601f19601f82011682018060405250810190612cd69190613d69565b949350505050565b5f516020613e8b5f395f51905f528054604051635ca4b5b160e11b8152600481018590526001600160a01b0384811660248301529091169063b9496b62906044015b5f604051808303815f87803b158015612d37575f5ffd5b505af1158015612d49573d5f5f3e3d5ffd5b50505050505050565b7f9e7b61f58c47dc699ac88507c4f5bb9f121c03808c5676a8078fe583e464970154604051639cd07acb60e01b81525f915f516020613e8b5f395f51905f52916001600160a01b0390911690639cd07acb90612db49087908790600401613e2c565b6020604051808303815f875af1158015612dd0573d5f5f3e3d5ffd5b505050506040513d601f19601f82011682018060405250810190612cd69190613915565b612dfd8261328a565b6040516001600160a01b038316907fbc7cd75a20ee27fd9adebab32041f755214dbc6bffa90cc0225b39da2e5c2d3b905f90a2805115612e41576126bc828261330d565b610c9c6133a5565b5f610c7b82612e58575f612e5b565b60015b60ff165f612d52565b5f805f516020613e8b5f395f51905f526001810154604051637702dcff60e01b81526004810188905260248101879052604481018690529192506001600160a01b031690637702dcff906064016020604051808303815f875af1158015612ecd573d5f5f3e3d5ffd5b505050506040513d601f19601f82011682018060405250810190612ef19190613915565b95945050505050565b5f5f8215612f0d5750600160f81b612f10565b505f5b7f9e7b61f58c47dc699ac88507c4f5bb9f121c03808c5676a8078fe583e46497015460405163022f65e760e31b815260048101879052602481018690526001600160f81b0319831660448201525f516020613e8b5f395f51905f52916001600160a01b03169063117b2f38906064015b6020604051808303815f875af1158015612f9c573d5f5f3e3d5ffd5b505050506040513d601f19601f82011682018060405250810190612fc09190613915565b9695505050505050565b6040805160018082528183019092525f516020613e8b5f395f51905f52915f91906020808301908036833701905050905082815f8151811061300e5761300e613901565b60209081029190910101528154604051637d6e912360e11b81526001600160a01b039091169063fadd224690612d20908490600401613e40565b7f9e7b61f58c47dc699ac88507c4f5bb9f121c03808c5676a8078fe583e4649702546040516378542ead60e01b81525f915f516020613e8b5f395f51905f52916001600160a01b03909116906378542ead906130ac90889088908890600401613e52565b6020604051808303815f875af11580156130c8573d5f5f3e3d5ffd5b505050506040513d601f19601f82011682018060405250810190612ef19190613d69565b5f5f82156130ff5750600160f81b613102565b505f5b7f9e7b61f58c47dc699ac88507c4f5bb9f121c03808c5676a8078fe583e464970154604051631391547f60e01b815260048101879052602481018690526001600160f81b0319831660448201525f516020613e8b5f395f51905f52916001600160a01b031690631391547f90606401612f80565b5f5f82156131895750600160f81b61318c565b505f5b7f9e7b61f58c47dc699ac88507c4f5bb9f121c03808c5676a8078fe583e4649701546040516385362ee760e01b815260048101879052602481018690526001600160f81b0319831660448201525f516020613e8b5f395f51905f52916001600160a01b0316906385362ee790606401612f80565b5f5f82156132135750600160f81b613216565b505f5b7f9e7b61f58c47dc699ac88507c4f5bb9f121c03808c5676a8078fe583e46497015460405163d99882d560e01b815260048101879052602481018690526001600160f81b0319831660448201525f516020613e8b5f395f51905f52916001600160a01b03169063d99882d590606401612f80565b806001600160a01b03163b5f036132bf57604051634c9c8ce360e01b81526001600160a01b0382166004820152602401610649565b7f360894a13ba1a3210667c828492db98dca3e2076cc3735a920a3ca505d382bbc805473ffffffffffffffffffffffffffffffffffffffff19166001600160a01b0392909216919091179055565b60605f61331a84846133c4565b905080801561333b57505f3d118061333b57505f846001600160a01b03163b115b15613348576124396133d7565b801561337257604051639996b31560e01b81526001600160a01b0385166004820152602401610649565b3d15613385576133806133f0565b61339e565b60405163d6bda27560e01b815260040160405180910390fd5b5092915050565b341561258f5760405163b398979f60e01b815260040160405180910390fd5b5f5f5f835160208501865af49392505050565b6040513d81523d5f602083013e3d602001810160405290565b6040513d5f823e3d81fd5b5f5f83601f84011261340b575f5ffd5b5081356001600160401b03811115613421575f5ffd5b602083019150836020828501011115613438575f5ffd5b9250929050565b5f6040828403121561344f575f5ffd5b50919050565b5f5f5f5f5f5f60a0878903121561346a575f5ffd5b86356001600160401b0381111561347f575f5ffd5b8701601f8101891361348f575f5ffd5b80356001600160401b038111156134a4575f5ffd5b8960208260051b84010111156134b8575f5ffd5b6020918201975095508701356001600160401b038111156134d7575f5ffd5b6134e389828a016133fb565b909550935050604087013591506134fd886060890161343f565b90509295509295509295565b5f60208284031215613519575f5ffd5b5035919050565b634e487b7160e01b5f52602160045260245ffd5b602081016007831061354857613548613520565b91905290565b6001600160a01b03811681146125ea575f5ffd5b5f5f60408385031215613573575f5ffd5b8235915060208301356135858161354e565b809150509250929050565b634e487b7160e01b5f52604160045260245ffd5b604051606081016001600160401b03811182821017156135c6576135c6613590565b60405290565b604051601f8201601f191681016001600160401b03811182821017156135f4576135f4613590565b604052919050565b5f6001600160401b0382111561361457613614613590565b50601f01601f191660200190565b5f5f60408385031215613633575f5ffd5b823561363e8161354e565b915060208301356001600160401b03811115613658575f5ffd5b8301601f81018513613668575f5ffd5b803561367b613676826135fc565b6135cc565b81815286602083850101111561368f575f5ffd5b816020840160208301375f602083830101528093505050509250929050565b6001600160401b03811681146125ea575f5ffd5b5f5f5f5f5f5f5f60e0888a0312156136d8575f5ffd5b87356136e38161354e565b965060208801356136f38161354e565b95506040880135613703816136ae565b94506060880135613713816136ae565b93506080880135613723816136ae565b925060a0880135613733816136ae565b915060c08801356137438161354e565b8091505092959891949750929550565b5f5f60408385031215613764575f5ffd5b50508035926020909101359150565b5f60208284031215613783575f5ffd5b81356129ec8161354e565b5f5f5f5f606085870312156137a1575f5ffd5b843593506020850135925060408501356001600160401b038111156137c4575f5ffd5b6137d0878288016133fb565b95989497509550505050565b5f81518084528060208401602086015e5f602082860101526020601f19601f83011685010191505092915050565b602081525f6129ec60208301846137dc565b5f5f5f5f5f60608688031215613830575f5ffd5b8535945060208601356001600160401b0381111561384c575f5ffd5b613858888289016133fb565b90955093505060408601356001600160401b03811115613876575f5ffd5b613882888289016133fb565b969995985093965092949392505050565b602080825282518282018190525f918401906040840190835b818110156138ca5783518352602093840193909201916001016138ac565b509095945050505050565b634e487b7160e01b5f52601160045260245ffd5b5f600182016138fa576138fa6138d5565b5060010190565b634e487b7160e01b5f52603260045260245ffd5b5f60208284031215613925575f5ffd5b5051919050565b5f6020828403121561393c575f5ffd5b81356129ec816136ae565b6001600160401b038181168382160190811115610c7b57610c7b6138d5565b8082028115828204841417610c7b57610c7b6138d5565b5f6001600160401b0382111561399557613995613590565b5060051b60200190565b5f82601f8301126139ae575f5ffd5b81516139bc613676826135fc565b8181528460208386010111156139d0575f5ffd5b8160208501602083015e5f918101602001919091529392505050565b5f602082840312156139fc575f5ffd5b81516001600160401b03811115613a11575f5ffd5b8201601f81018413613a21575f5ffd5b8051613a2f6136768261397d565b8082825260208201915060208360051b850101925086831115613a50575f5ffd5b602084015b83811015613ae55780516001600160401b03811115613a72575f5ffd5b85016060818a03601f19011215613a87575f5ffd5b613a8f6135a4565b6020820151613a9d8161354e565b81526040820151602082015260608201516001600160401b03811115613ac1575f5ffd5b613ad08b60208386010161399f565b60408301525084525060209283019201613a55565b509695505050505050565b5f606082018583526060602084015280855180835260808501915060808160051b8601019250602087015f5b82811015613b7757607f1987860301845281516001600160a01b038151168652602081015160208701526040810151905060606040870152613b6160608701826137dc565b9550506020938401939190910190600101613b1c565b50505050604092909201929092529392505050565b5f5f60408385031215613b9d575f5ffd5b82516001600160401b03811115613bb2575f5ffd5b8301601f81018513613bc2575f5ffd5b8051613bd06136768261397d565b8082825260208201915060208360051b850101925087831115613bf1575f5ffd5b602084015b83811015613c315780516001600160401b03811115613c13575f5ffd5b613c228a60208389010161399f565b84525060209283019201613bf6565b506020969096015195979596505050505050565b5f60208284031215613c55575f5ffd5b81356001600160401b03811115613c6a575f5ffd5b8201601f81018413613c7a575f5ffd5b8035613c886136768261397d565b8082825260208201915060208360051b850101925086831115613ca9575f5ffd5b6020840193505b82841015612fc0578335825260209384019390910190613cb0565b5f60208284031215613cdb575f5ffd5b81516129ec816136ae565b6001600160401b03818116838216029081169081811461339e5761339e6138d5565b5f6001600160401b03831680613d2c57634e487b7160e01b5f52601260045260245ffd5b806001600160401b0384160491505092915050565b80151581146125ea575f5ffd5b5f60208284031215613d5e575f5ffd5b81356129ec81613d41565b5f60208284031215613d79575f5ffd5b81516129ec81613d41565b5f8151808452602084019350602083015f5b82811015613db4578151865260209586019590910190600101613d96565b5093949350505050565b604081525f613dd06040830185613d84565b8281036020840152612ef181856137dc565b60548110613df257613df2613520565b9052565b8481526001600160a01b0384166020820152608060408201525f613e1d60808301856137dc565b9050612ef16060830184613de2565b828152604081016129ec6020830184613de2565b602081525f6129ec6020830184613d84565b606081525f613e646060830186613d84565b8281036020840152613e7681866137dc565b90508281036040840152612fc081856137dc56fe9e7b61f58c47dc699ac88507c4f5bb9f121c03808c5676a8078fe583e4649700a164736f6c634300081b000a",
  "devdoc": {
    "errors": {
      "AddressEmptyCode(address)": [
        {
          "details": "There's no code at `target` (it is not a contract)."
        }
      ],
      "ERC1967InvalidImplementation(address)": [
        {
          "details": "The `implementation` of the proxy is invalid."
        }
      ],
      "ERC1967NonPayable()": [
        {
          "details": "An upgrade function sees `msg.value > 0` that may be lost."
        }
      ],
      "FailedCall()": [
        {
          "details": "A call to an address target failed. The target may have reverted."
        }
      ],
      "InvalidInitialization()": [
        {
          "details": "The contract is already initialized."
        }
      ],
      "NotInitializing()": [
        {
          "details": "The contract is not initializing."
        }
      ],
      "UUPSUnauthorizedCallContext()": [
        {
          "details": "The call is from an unauthorized context."
        }
      ],
      "UUPSUnsupportedProxiableUUID(bytes32)": [
        {
          "details": "The storage `slot` is unsupported as a UUID."
        }
      ]
    },
    "events": {
      "Initialized(uint64)": {
        "details": "Triggered when the contract has been initialized or reinitialized."
      },
      "Upgraded(address)": {
        "details": "Emitted when the implementation is upgraded."
      }
    },
    "kind": "dev",
    "methods": {
      "constructor": {
        "custom:oz-upgrades-unsafe-allow": "constructor"
      },
      "proxiableUUID()": {
        "details": "Implementation of the ERC-1822 {proxiableUUID} function. This returns the storage slot used by the implementation. It is used to validate the implementation's compatibility when performing an upgrade. IMPORTANT: A proxy pointing at a proxiable contract should not be considered proxiable itself, because this risks bricking a proxy that upgrades to it, by delegating to itself until out of gas. Thus it is critical that this function revert if invoked through a proxy. This is guaranteed by the `notDelegated` modifier."
      },
      "upgradeToAndCall(address,bytes)": {
        "custom:oz-upgrades-unsafe-allow-reachable": "delegatecall",
        "details": "Upgrade the implementation of the proxy to `newImplementation`, and subsequently execute the function call encoded in `data`. Calls {_authorizeUpgrade}. Emits an {Upgraded} event."
      }
    },
    "title": "EncryptedTokenVoting",
    "version": 1
  },
  "userdoc": {
    "errors": {
      "InvalidKMSSignatures()": [
        {
          "notice": "Returned if the returned KMS signatures are not valid."
        }
      ],
      "SenderNotAllowedToUseHandle(bytes32,address)": [
        {
          "notice": "Returned if the sender is not allowed to use the handle."
        }
      ],
      "ZamaProtocolUnsupported()": [
        {
          "notice": "Returned if the Zama protocol is not supported on the current chain"
        }
      ]
    },
    "events": {
      "PublicDecryptionVerified(bytes32[],bytes)": {
        "notice": "This event is emitted when public decryption has been successfully verified."
      }
    },
    "kind": "user",
    "methods": {},
    "notice": "UUPS-upgradeable token voting plugin with full FHE privacy.",
    "version": 1
  },
  "storageLayout": {
    "storage": [
      {
        "astId": 47149,
        "contract": "contracts/dao/EncryptedTokenVoting.sol:EncryptedTokenVoting",
        "label": "dao",
        "offset": 0,
        "slot": "0",
        "type": "t_contract(IDAO)48564"
      },
      {
        "astId": 47152,
        "contract": "contracts/dao/EncryptedTokenVoting.sol:EncryptedTokenVoting",
        "label": "governanceToken",
        "offset": 0,
        "slot": "1",
        "type": "t_contract(EncryptedGovernanceToken)45547"
      },
      {
        "astId": 47154,
        "contract": "contracts/dao/EncryptedTokenVoting.sol:EncryptedTokenVoting",
        "label": "proposalCount",
        "offset": 0,
        "slot": "2",
        "type": "t_uint256"
      },
      {
        "astId": 47156,
        "contract": "contracts/dao/EncryptedTokenVoting.sol:EncryptedTokenVoting",
        "label": "votingDuration",
        "offset": 0,
        "slot": "3",
        "type": "t_uint64"
      },
      {
        "astId": 47158,
        "contract": "contracts/dao/EncryptedTokenVoting.sol:EncryptedTokenVoting",
        "label": "minQuorumPct",
        "offset": 8,
        "slot": "3",
        "type": "t_uint64"
      },
      {
        "astId": 47160,
        "contract": "contracts/dao/EncryptedTokenVoting.sol:EncryptedTokenVoting",
        "label": "minSupportPct",
        "offset": 16,
        "slot": "3",
        "type": "t_uint64"
      },
      {
        "astId": 47162,
        "contract": "contracts/dao/EncryptedTokenVoting.sol:EncryptedTokenVoting",
        "label": "minProposerBalance",
        "offset": 24,
        "slot": "3",
        "type": "t_uint64"
      },
      {
        "astId": 47167,
        "contract": "contracts/dao/EncryptedTokenVoting.sol:EncryptedTokenVoting",
        "label": "_proposals",
        "offset": 0,
        "slot": "4",
        "type": "t_mapping(t_uint256,t_struct(Proposal)47116_storage)"
      },
      {
        "astId": 47173,
        "contract": "contracts/dao/EncryptedTokenVoting.sol:EncryptedTokenVoting",
        "label": "_hasVoted",
        "offset": 0,
        "slot": "5",
        "type": "t_mapping(t_uint256,t_mapping(t_address,t_bool))"
      },
      {
        "astId": 47179,
        "contract": "contracts/dao/EncryptedTokenVoting.sol:EncryptedTokenVoting",
        "label": "_encryptedChunks",
        "offset": 0,
        "slot": "6",
        "type": "t_mapping(t_uint256,t_array(t_userDefinedValueType(euint256)48636)dyn_storage)"
      },
      {
        "astId": 47184,
        "contract": "contracts/dao/EncryptedTokenVoting.sol:EncryptedTokenVoting",
        "label": "_revealedChunks",
        "offset": 0,
        "slot": "7",
        "type": "t_mapping(t_uint256,t_array(t_uint256)dyn_storage)"
      }
    ],
    "types": {
      "t_address": {
        "encoding": "inplace",
        "label": "address",
        "numberOfBytes": "20"
      },
      "t_array(t_uint256)dyn_storage": {
        "base": "t_uint256",
        "encoding": "dynamic_array",
        "label": "uint256[]",
        "numberOfBytes": "32"
      },
      "t_array(t_userDefinedValueType(euint256)48636)dyn_storage": {
        "base": "t_userDefinedValueType(euint256)48636",
        "encoding": "dynamic_array",
        "label": "euint256[]",
        "numberOfBytes": "32"
      },
      "t_bool": {
        "encoding": "inplace",
        "label": "bool",
        "numberOfBytes": "1"
      },
      "t_bytes32": {
        "encoding": "inplace",
        "label": "bytes32",
        "numberOfBytes": "32"
      },
      "t_contract(EncryptedGovernanceToken)45547": {
        "encoding": "inplace",
        "label": "contract EncryptedGovernanceToken",
        "numberOfBytes": "20"
      },
      "t_contract(IDAO)48564": {
        "encoding": "inplace",
        "label": "contract IDAO",
        "numberOfBytes": "20"
      },
      "t_mapping(t_address,t_bool)": {
        "encoding": "mapping",
        "key": "t_address",
        "label": "mapping(address => bool)",
        "numberOfBytes": "32",
        "value": "t_bool"
      },
      "t_mapping(t_uint256,t_array(t_uint256)dyn_storage)": {
        "encoding": "mapping",
        "key": "t_uint256",
        "label": "mapping(uint256 => uint256[])",
        "numberOfBytes": "32",
        "value": "t_array(t_uint256)dyn_storage"
      },
      "t_mapping(t_uint256,t_array(t_userDefinedValueType(euint256)48636)dyn_storage)": {
        "encoding": "mapping",
        "key": "t_uint256",
        "label": "mapping(uint256 => euint256[])",
        "numberOfBytes": "32",
        "value": "t_array(t_userDefinedValueType(euint256)48636)dyn_storage"
      },
      "t_mapping(t_uint256,t_mapping(t_address,t_bool))": {
        "encoding": "mapping",
        "key": "t_uint256",
        "label": "mapping(uint256 => mapping(address => bool))",
        "numberOfBytes": "32",
        "value": "t_mapping(t_address,t_bool)"
      },
      "t_mapping(t_uint256,t_struct(Proposal)47116_storage)": {
        "encoding": "mapping",
        "key": "t_uint256",
        "label": "mapping(uint256 => struct EncryptedTokenVoting.Proposal)",
        "numberOfBytes": "32",
        "value": "t_struct(Proposal)47116_storage"
      },
      "t_struct(Proposal)47116_storage": {
        "encoding": "inplace",
        "label": "struct EncryptedTokenVoting.Proposal",
        "members": [
          {
            "astId": 47091,
            "contract": "contracts/dao/EncryptedTokenVoting.sol:EncryptedTokenVoting",
            "label": "snapshotId",
            "offset": 0,
            "slot": "0",
            "type": "t_uint256"
          },
          {
            "astId": 47093,
            "contract": "contracts/dao/EncryptedTokenVoting.sol:EncryptedTokenVoting",
            "label": "voteStart",
            "offset": 0,
            "slot": "1",
            "type": "t_uint64"
          },
          {
            "astId": 47095,
            "contract": "contracts/dao/EncryptedTokenVoting.sol:EncryptedTokenVoting",
            "label": "voteEnd",
            "offset": 8,
            "slot": "1",
            "type": "t_uint64"
          },
          {
            "astId": 47098,
            "contract": "contracts/dao/EncryptedTokenVoting.sol:EncryptedTokenVoting",
            "label": "encryptedForVotes",
            "offset": 0,
            "slot": "2",
            "type": "t_userDefinedValueType(euint64)48588"
          },
          {
            "astId": 47101,
            "contract": "contracts/dao/EncryptedTokenVoting.sol:EncryptedTokenVoting",
            "label": "encryptedAgainstVotes",
            "offset": 0,
            "slot": "3",
            "type": "t_userDefinedValueType(euint64)48588"
          },
          {
            "astId": 47103,
            "contract": "contracts/dao/EncryptedTokenVoting.sol:EncryptedTokenVoting",
            "label": "chunkCount",
            "offset": 0,
            "slot": "4",
            "type": "t_uint256"
          },
          {
            "astId": 47105,
            "contract": "contracts/dao/EncryptedTokenVoting.sol:EncryptedTokenVoting",
            "label": "finalized",
            "offset": 0,
            "slot": "5",
            "type": "t_bool"
          },
          {
            "astId": 47107,
            "contract": "contracts/dao/EncryptedTokenVoting.sol:EncryptedTokenVoting",
            "label": "resultApproved",
            "offset": 1,
            "slot": "5",
            "type": "t_bool"
          },
          {
            "astId": 47109,
            "contract": "contracts/dao/EncryptedTokenVoting.sol:EncryptedTokenVoting",
            "label": "revealed",
            "offset": 2,
            "slot": "5",
            "type": "t_bool"
          },
          {
            "astId": 47111,
            "contract": "contracts/dao/EncryptedTokenVoting.sol:EncryptedTokenVoting",
            "label": "executed",
            "offset": 3,
            "slot": "5",
            "type": "t_bool"
          },
          {
            "astId": 47113,
            "contract": "contracts/dao/EncryptedTokenVoting.sol:EncryptedTokenVoting",
            "label": "cancelled",
            "offset": 4,
            "slot": "5",
            "type": "t_bool"
          },
          {
            "astId": 47115,
            "contract": "contracts/dao/EncryptedTokenVoting.sol:EncryptedTokenVoting",
            "label": "cancelKeyHash",
            "offset": 0,
            "slot": "6",
            "type": "t_bytes32"
          }
        ],
        "numberOfBytes": "224"
      },
      "t_uint256": {
        "encoding": "inplace",
        "label": "uint256",
        "numberOfBytes": "32"
      },
      "t_uint64": {
        "encoding": "inplace",
        "label": "uint64",
        "numberOfBytes": "8"
      },
      "t_userDefinedValueType(euint256)48636": {
        "encoding": "inplace",
        "label": "euint256",
        "numberOfBytes": "32"
      },
      "t_userDefinedValueType(euint64)48588": {
        "encoding": "inplace",
        "label": "euint64",
        "numberOfBytes": "32"
      }
    }
  }
}