{
  "address": "0x4CFd26ED6F397cae67c1baD14C7788B72f060b81",
  "abi": [
    {
      "inputs": [],
      "stateMutability": "nonpayable",
      "type": "constructor"
    },
    {
      "inputs": [
        {
          "internalType": "address",
          "name": "target",
          "type": "address"
        }
      ],
      "name": "AddressEmptyCode",
      "type": "error"
    },
    {
      "inputs": [
        {
          "internalType": "address",
          "name": "implementation",
          "type": "address"
        }
      ],
      "name": "ERC1967InvalidImplementation",
      "type": "error"
    },
    {
      "inputs": [],
      "name": "ERC1967NonPayable",
      "type": "error"
    },
    {
      "inputs": [],
      "name": "FailedCall",
      "type": "error"
    },
    {
      "inputs": [],
      "name": "InvalidInitialization",
      "type": "error"
    },
    {
      "inputs": [],
      "name": "NotInitializing",
      "type": "error"
    },
    {
      "inputs": [
        {
          "internalType": "bytes32",
          "name": "handle",
          "type": "bytes32"
        },
        {
          "internalType": "address",
          "name": "sender",
          "type": "address"
        }
      ],
      "name": "SenderNotAllowedToUseHandle",
      "type": "error"
    },
    {
      "inputs": [],
      "name": "UUPSUnauthorizedCallContext",
      "type": "error"
    },
    {
      "inputs": [
        {
          "internalType": "bytes32",
          "name": "slot",
          "type": "bytes32"
        }
      ],
      "name": "UUPSUnsupportedProxiableUUID",
      "type": "error"
    },
    {
      "inputs": [],
      "name": "ZamaProtocolUnsupported",
      "type": "error"
    },
    {
      "anonymous": false,
      "inputs": [
        {
          "indexed": true,
          "internalType": "address",
          "name": "owner",
          "type": "address"
        },
        {
          "indexed": true,
          "internalType": "address",
          "name": "spender",
          "type": "address"
        }
      ],
      "name": "Approval",
      "type": "event"
    },
    {
      "anonymous": false,
      "inputs": [
        {
          "indexed": true,
          "internalType": "address",
          "name": "delegator",
          "type": "address"
        },
        {
          "indexed": true,
          "internalType": "address",
          "name": "fromDelegate",
          "type": "address"
        },
        {
          "indexed": true,
          "internalType": "address",
          "name": "toDelegate",
          "type": "address"
        }
      ],
      "name": "DelegateChanged",
      "type": "event"
    },
    {
      "anonymous": false,
      "inputs": [
        {
          "indexed": false,
          "internalType": "uint64",
          "name": "version",
          "type": "uint64"
        }
      ],
      "name": "Initialized",
      "type": "event"
    },
    {
      "anonymous": false,
      "inputs": [
        {
          "indexed": true,
          "internalType": "address",
          "name": "to",
          "type": "address"
        },
        {
          "indexed": false,
          "internalType": "uint64",
          "name": "amount",
          "type": "uint64"
        }
      ],
      "name": "Mint",
      "type": "event"
    },
    {
      "anonymous": false,
      "inputs": [
        {
          "indexed": true,
          "internalType": "uint256",
          "name": "snapshotId",
          "type": "uint256"
        }
      ],
      "name": "SnapshotCreated",
      "type": "event"
    },
    {
      "anonymous": false,
      "inputs": [
        {
          "indexed": true,
          "internalType": "address",
          "name": "from",
          "type": "address"
        },
        {
          "indexed": true,
          "internalType": "address",
          "name": "to",
          "type": "address"
        }
      ],
      "name": "Transfer",
      "type": "event"
    },
    {
      "anonymous": false,
      "inputs": [
        {
          "indexed": true,
          "internalType": "address",
          "name": "implementation",
          "type": "address"
        }
      ],
      "name": "Upgraded",
      "type": "event"
    },
    {
      "inputs": [],
      "name": "UPGRADE_INTERFACE_VERSION",
      "outputs": [
        {
          "internalType": "string",
          "name": "",
          "type": "string"
        }
      ],
      "stateMutability": "view",
      "type": "function"
    },
    {
      "inputs": [
        {
          "internalType": "address",
          "name": "tokenOwner",
          "type": "address"
        },
        {
          "internalType": "address",
          "name": "spender",
          "type": "address"
        }
      ],
      "name": "allowance",
      "outputs": [
        {
          "internalType": "euint64",
          "name": "",
          "type": "bytes32"
        }
      ],
      "stateMutability": "view",
      "type": "function"
    },
    {
      "inputs": [
        {
          "internalType": "address",
          "name": "spender",
          "type": "address"
        },
        {
          "internalType": "euint64",
          "name": "amount",
          "type": "bytes32"
        }
      ],
      "name": "approve",
      "outputs": [
        {
          "internalType": "bool",
          "name": "",
          "type": "bool"
        }
      ],
      "stateMutability": "nonpayable",
      "type": "function"
    },
    {
      "inputs": [
        {
          "internalType": "address",
          "name": "spender",
          "type": "address"
        },
        {
          "internalType": "externalEuint64",
          "name": "encryptedAmount",
          "type": "bytes32"
        },
        {
          "internalType": "bytes",
          "name": "inputProof",
          "type": "bytes"
        }
      ],
      "name": "approve",
      "outputs": [
        {
          "internalType": "bool",
          "name": "",
          "type": "bool"
        }
      ],
      "stateMutability": "nonpayable",
      "type": "function"
    },
    {
      "inputs": [
        {
          "internalType": "address",
          "name": "account",
          "type": "address"
        }
      ],
      "name": "balanceOf",
      "outputs": [
        {
          "internalType": "euint64",
          "name": "",
          "type": "bytes32"
        }
      ],
      "stateMutability": "view",
      "type": "function"
    },
    {
      "inputs": [],
      "name": "confidentialProtocolId",
      "outputs": [
        {
          "internalType": "uint256",
          "name": "",
          "type": "uint256"
        }
      ],
      "stateMutability": "view",
      "type": "function"
    },
    {
      "inputs": [],
      "name": "createSnapshot",
      "outputs": [
        {
          "internalType": "uint256",
          "name": "",
          "type": "uint256"
        }
      ],
      "stateMutability": "nonpayable",
      "type": "function"
    },
    {
      "inputs": [],
      "name": "currentSnapshotId",
      "outputs": [
        {
          "internalType": "uint256",
          "name": "",
          "type": "uint256"
        }
      ],
      "stateMutability": "view",
      "type": "function"
    },
    {
      "inputs": [],
      "name": "decimals",
      "outputs": [
        {
          "internalType": "uint8",
          "name": "",
          "type": "uint8"
        }
      ],
      "stateMutability": "view",
      "type": "function"
    },
    {
      "inputs": [
        {
          "internalType": "address",
          "name": "delegatee",
          "type": "address"
        }
      ],
      "name": "delegate",
      "outputs": [],
      "stateMutability": "nonpayable",
      "type": "function"
    },
    {
      "inputs": [
        {
          "internalType": "address",
          "name": "",
          "type": "address"
        }
      ],
      "name": "delegates",
      "outputs": [
        {
          "internalType": "address",
          "name": "",
          "type": "address"
        }
      ],
      "stateMutability": "view",
      "type": "function"
    },
    {
      "inputs": [
        {
          "internalType": "uint256",
          "name": "snapshotId",
          "type": "uint256"
        },
        {
          "internalType": "address",
          "name": "account",
          "type": "address"
        }
      ],
      "name": "getSnapshotVotingPower",
      "outputs": [
        {
          "internalType": "euint64",
          "name": "",
          "type": "bytes32"
        }
      ],
      "stateMutability": "nonpayable",
      "type": "function"
    },
    {
      "inputs": [
        {
          "internalType": "address",
          "name": "account",
          "type": "address"
        }
      ],
      "name": "getVotingPower",
      "outputs": [
        {
          "internalType": "euint64",
          "name": "",
          "type": "bytes32"
        }
      ],
      "stateMutability": "nonpayable",
      "type": "function"
    },
    {
      "inputs": [
        {
          "internalType": "string",
          "name": "name_",
          "type": "string"
        },
        {
          "internalType": "string",
          "name": "symbol_",
          "type": "string"
        },
        {
          "internalType": "address",
          "name": "",
          "type": "address"
        }
      ],
      "name": "initialize",
      "outputs": [],
      "stateMutability": "nonpayable",
      "type": "function"
    },
    {
      "inputs": [
        {
          "internalType": "address",
          "name": "",
          "type": "address"
        }
      ],
      "name": "isSnapshotCreator",
      "outputs": [
        {
          "internalType": "bool",
          "name": "",
          "type": "bool"
        }
      ],
      "stateMutability": "view",
      "type": "function"
    },
    {
      "inputs": [
        {
          "internalType": "address",
          "name": "account",
          "type": "address"
        }
      ],
      "name": "isTokenHolder",
      "outputs": [
        {
          "internalType": "bool",
          "name": "",
          "type": "bool"
        }
      ],
      "stateMutability": "view",
      "type": "function"
    },
    {
      "inputs": [
        {
          "internalType": "address",
          "name": "forwarder",
          "type": "address"
        }
      ],
      "name": "isTrustedForwarder",
      "outputs": [
        {
          "internalType": "bool",
          "name": "",
          "type": "bool"
        }
      ],
      "stateMutability": "view",
      "type": "function"
    },
    {
      "inputs": [
        {
          "internalType": "address",
          "name": "to",
          "type": "address"
        },
        {
          "internalType": "uint64",
          "name": "amount",
          "type": "uint64"
        }
      ],
      "name": "mint",
      "outputs": [],
      "stateMutability": "nonpayable",
      "type": "function"
    },
    {
      "inputs": [],
      "name": "name",
      "outputs": [
        {
          "internalType": "string",
          "name": "",
          "type": "string"
        }
      ],
      "stateMutability": "view",
      "type": "function"
    },
    {
      "inputs": [],
      "name": "owner",
      "outputs": [
        {
          "internalType": "address",
          "name": "",
          "type": "address"
        }
      ],
      "stateMutability": "view",
      "type": "function"
    },
    {
      "inputs": [],
      "name": "proxiableUUID",
      "outputs": [
        {
          "internalType": "bytes32",
          "name": "",
          "type": "bytes32"
        }
      ],
      "stateMutability": "view",
      "type": "function"
    },
    {
      "inputs": [
        {
          "internalType": "address",
          "name": "creator",
          "type": "address"
        },
        {
          "internalType": "bool",
          "name": "authorized",
          "type": "bool"
        }
      ],
      "name": "setSnapshotCreator",
      "outputs": [],
      "stateMutability": "nonpayable",
      "type": "function"
    },
    {
      "inputs": [],
      "name": "symbol",
      "outputs": [
        {
          "internalType": "string",
          "name": "",
          "type": "string"
        }
      ],
      "stateMutability": "view",
      "type": "function"
    },
    {
      "inputs": [],
      "name": "totalSupply",
      "outputs": [
        {
          "internalType": "uint64",
          "name": "",
          "type": "uint64"
        }
      ],
      "stateMutability": "view",
      "type": "function"
    },
    {
      "inputs": [
        {
          "internalType": "address",
          "name": "to",
          "type": "address"
        },
        {
          "internalType": "externalEuint64",
          "name": "encryptedAmount",
          "type": "bytes32"
        },
        {
          "internalType": "bytes",
          "name": "inputProof",
          "type": "bytes"
        }
      ],
      "name": "transfer",
      "outputs": [
        {
          "internalType": "bool",
          "name": "",
          "type": "bool"
        }
      ],
      "stateMutability": "nonpayable",
      "type": "function"
    },
    {
      "inputs": [
        {
          "internalType": "address",
          "name": "to",
          "type": "address"
        },
        {
          "internalType": "euint64",
          "name": "amount",
          "type": "bytes32"
        }
      ],
      "name": "transfer",
      "outputs": [
        {
          "internalType": "bool",
          "name": "",
          "type": "bool"
        }
      ],
      "stateMutability": "nonpayable",
      "type": "function"
    },
    {
      "inputs": [
        {
          "internalType": "address",
          "name": "from",
          "type": "address"
        },
        {
          "internalType": "address",
          "name": "to",
          "type": "address"
        },
        {
          "internalType": "externalEuint64",
          "name": "encryptedAmount",
          "type": "bytes32"
        },
        {
          "internalType": "bytes",
          "name": "inputProof",
          "type": "bytes"
        }
      ],
      "name": "transferFrom",
      "outputs": [
        {
          "internalType": "bool",
          "name": "",
          "type": "bool"
        }
      ],
      "stateMutability": "nonpayable",
      "type": "function"
    },
    {
      "inputs": [
        {
          "internalType": "address",
          "name": "from",
          "type": "address"
        },
        {
          "internalType": "address",
          "name": "to",
          "type": "address"
        },
        {
          "internalType": "euint64",
          "name": "amount",
          "type": "bytes32"
        }
      ],
      "name": "transferFrom",
      "outputs": [
        {
          "internalType": "bool",
          "name": "",
          "type": "bool"
        }
      ],
      "stateMutability": "nonpayable",
      "type": "function"
    },
    {
      "inputs": [],
      "name": "trustedForwarder",
      "outputs": [
        {
          "internalType": "address",
          "name": "",
          "type": "address"
        }
      ],
      "stateMutability": "view",
      "type": "function"
    },
    {
      "inputs": [
        {
          "internalType": "address",
          "name": "newImplementation",
          "type": "address"
        },
        {
          "internalType": "bytes",
          "name": "data",
          "type": "bytes"
        }
      ],
      "name": "upgradeToAndCall",
      "outputs": [],
      "stateMutability": "payable",
      "type": "function"
    },
    {
      "inputs": [],
      "name": "version",
      "outputs": [
        {
          "internalType": "uint256",
          "name": "",
          "type": "uint256"
        }
      ],
      "stateMutability": "pure",
      "type": "function"
    }
  ],
  "transactionHash": "0xa4508469aef4cf1b161288c31d57653ebcc88e94ad78f9409de2998b5464d35c",
  "args": [],
  "numDeployments": 1,
  "solcInputHash": "26aa44b4b3c26ee085e8c6d54363c2cd",
  "bytecode": "0x60c060405230608052348015610013575f5ffd5b505f60a052610020610025565b6100d7565b7ff0c57e16840df040f15088dc2f81fe391c3923bec73e23a9662efc9c229c6a00805468010000000000000000900460ff16156100755760405163f92ee8a960e01b815260040160405180910390fd5b80546001600160401b03908116146100d45780546001600160401b0319166001600160401b0390811782556040519081527fc7f505b2f371ae2175ee4913f4499e1f2633a7b5936321eed1cdaeb6115181d29060200160405180910390a15b50565b60805160a051612b906101145f395f8181610334015281816104d4015261148f01525f818161162a0152818161165301526118140152612b905ff3fe6080604052600436106101d0575f3560e01c806370a08231116100fd578063970875ce11610092578063b3c06f5011610062578063b3c06f50146105e1578063bb4d443614610600578063dd62ed3e1461061f578063df1e8d8414610663575f5ffd5b8063970875ce146105465780639a0943521461055b578063ad3cb1cc1461057a578063b32c1001146105c2575f5ffd5b80637da0a877116100cd5780637da0a877146104c65780638927b030146104f85780638da5cb5b1461050c57806395d89b4114610532575f5ffd5b806370a08231146104355780637b7e0a5a146104695780637d32e7bd146104885780637d7510e6146104a7575f5ffd5b80634f1ef28611610173578063587cde1e11610143578063587cde1e146103745780635c19a95c146103c05780635cd2f4d3146103df57806365731fe9146103fe575f5ffd5b80634f1ef286146102de57806352d1902d146102f157806354fd4d5014610305578063572b6c0514610318575f5ffd5b806318160ddd116101ae57806318160ddd146102415780632893c5b01461027a578063313ce5671461029957806336880b81146102bf575f5ffd5b806306fdde03146101d4578063077f224a146101fe5780631504d8f01461021f575b5f5ffd5b3480156101df575f5ffd5b506101e8610691565b6040516101f5919061250f565b60405180910390f35b348015610209575f5ffd5b5061021d6102183660046125e5565b61071c565b005b34801561022a575f5ffd5b50610233610871565b6040519081526020016101f5565b34801561024c575f5ffd5b506002546102619067ffffffffffffffff1681565b60405167ffffffffffffffff90911681526020016101f5565b348015610285575f5ffd5b5061021d610294366004612659565b61091a565b3480156102a4575f5ffd5b506102ad601281565b60405160ff90911681526020016101f5565b3480156102ca575f5ffd5b5061021d6102d93660046126a7565b610b63565b61021d6102ec3660046126d1565b610bea565b3480156102fc575f5ffd5b50610233610c09565b348015610310575f5ffd5b506001610233565b348015610323575f5ffd5b5061036461033236600461272f565b7f00000000000000000000000000000000000000000000000000000000000000006001600160a01b0390811691161490565b60405190151581526020016101f5565b34801561037f575f5ffd5b506103a861038e36600461272f565b60056020525f90815260409020546001600160a01b031681565b6040516001600160a01b0390911681526020016101f5565b3480156103cb575f5ffd5b5061021d6103da36600461272f565b610c37565b3480156103ea575f5ffd5b506103646103f9366004612748565b610e02565b348015610409575f5ffd5b5061036461041836600461272f565b6001600160a01b03165f9081526007602052604090205460ff1690565b348015610440575f5ffd5b5061023361044f36600461272f565b6001600160a01b03165f9081526003602052604090205490565b348015610474575f5ffd5b506103646104833660046127b5565b610e5e565b348015610493575f5ffd5b506103646104a2366004612748565b610ef8565b3480156104b2575f5ffd5b506102336104c136600461280b565b610f3c565b3480156104d1575f5ffd5b507f00000000000000000000000000000000000000000000000000000000000000006103a8565b348015610503575f5ffd5b5061023361106d565b348015610517575f5ffd5b506002546103a890600160401b90046001600160a01b031681565b34801561053d575f5ffd5b506101e861107b565b348015610551575f5ffd5b5061023360085481565b348015610566575f5ffd5b50610364610575366004612835565b611088565b348015610585575f5ffd5b506101e86040518060400160405280600581526020017f352e302e3000000000000000000000000000000000000000000000000000000081525081565b3480156105cd575f5ffd5b506103646105dc3660046127b5565b6110fc565b3480156105ec575f5ffd5b506103646105fb36600461289f565b6111a4565b34801561060b575f5ffd5b5061023361061a36600461272f565b6111dd565b34801561062a575f5ffd5b506102336106393660046128d9565b6001600160a01b039182165f90815260046020908152604080832093909416825291909152205490565b34801561066e575f5ffd5b5061036461067d36600461272f565b600a6020525f908152604090205460ff1681565b5f805461069d90612901565b80601f01602080910402602001604051908101604052809291908181526020018280546106c990612901565b80156107145780601f106106eb57610100808354040283529160200191610714565b820191905f5260205f20905b8154815290600101906020018083116106f757829003601f168201915b505050505081565b5f610725611206565b805490915060ff600160401b820416159067ffffffffffffffff165f8115801561074c5750825b90505f8267ffffffffffffffff1660011480156107685750303b155b905081158015610776575080155b156107945760405163f92ee8a960e01b815260040160405180910390fd5b845467ffffffffffffffff1916600117855583156107c357845468ff00000000000000001916600160401b1785555b6107d36107ce61122e565b6113dd565b5f6107de8982612984565b5060016107eb8882612984565b50600280547fffffffff0000000000000000000000000000000000000000ffffffffffffffff1633600160401b02179055831561086757845468ff000000000000000019168555604051600181527fc7f505b2f371ae2175ee4913f4499e1f2633a7b5936321eed1cdaeb6115181d29060200160405180910390a15b5050505050505050565b335f908152600a602052604081205460ff166108d45760405162461bcd60e51b815260206004820152601a60248201527f4e6f7420617574686f72697a656420746f20736e617073686f7400000000000060448201526064015b60405180910390fd5b60088054905f6108e383612a53565b90915550506008546040517fb3f0c2b18fd39e8cee5f554c26a84565b651237746f9b33337e40d5abab73400905f90a25060085490565b600254600160401b90046001600160a01b0316610935611483565b6001600160a01b0316146109775760405162461bcd60e51b81526020600482015260096024820152682737ba1037bbb732b960b91b60448201526064016108cb565b6001600160a01b0382166109cd5760405162461bcd60e51b815260206004820152601460248201527f4d696e7420746f207a65726f206164647265737300000000000000000000000060448201526064016108cb565b6001600160a01b0382165f908152600760209081526040808320805460ff191660011790556003909152902054610a0490826114d4565b6001600160a01b0383165f908152600360205260409020819055610a27906114fc565b506001600160a01b0382165f90815260036020526040902054610a4a908361151c565b505f610a558361153f565b9050610a6081611567565b6001600160a01b0381165f90815260066020526040902054610a8290836114d4565b6001600160a01b0382165f908152600660205260409020819055610aa5906114fc565b506001600160a01b0381165f90815260066020526040902054610ac8908261151c565b50600280548391905f90610ae790849067ffffffffffffffff16612a6b565b92506101000a81548167ffffffffffffffff021916908367ffffffffffffffff160217905550826001600160a01b03167f9109de113672aaca72ede8bc906f7aafabee865311ac020fb15c71edf94a0a0183604051610b56919067ffffffffffffffff91909116815260200190565b60405180910390a2505050565b600254600160401b90046001600160a01b0316610b7e611483565b6001600160a01b031614610bc05760405162461bcd60e51b81526020600482015260096024820152682737ba1037bbb732b960b91b60448201526064016108cb565b6001600160a01b03919091165f908152600a60205260409020805460ff1916911515919091179055565b610bf261161f565b610bfb826116d8565b610c058282611735565b5050565b5f610c12611809565b507f360894a13ba1a3210667c828492db98dca3e2076cc3735a920a3ca505d382bbc90565b5f610c40611483565b90506001600160a01b038216610c54578091505b5f610c5e8261153f565b9050826001600160a01b0316816001600160a01b031603610c7e57505050565b6001600160a01b0382165f90815260036020526040902054610c9f82611567565b610ca884611567565b6001600160a01b0382165f90815260066020526040902054610cca9082611852565b6001600160a01b0383165f908152600660205260409020819055610ced906114fc565b506001600160a01b0382165f90815260066020526040902054610d10908361151c565b506001600160a01b0384165f90815260066020526040902054610d339082611880565b6001600160a01b0385165f908152600660205260409020819055610d56906114fc565b506001600160a01b0384165f90815260066020526040902054610d79908561151c565b50836001600160a01b0316826001600160a01b0316846001600160a01b03167f3134e8a2e6d97e929a7e54011ea5485d7d196dd5f0ba4d4ef95803e8e3fc257f60405160405180910390a450506001600160a01b039081165f90815260056020526040902080549190921673ffffffffffffffffffffffffffffffffffffffff19909116179055565b5f610e0c826118ae565b610e14575f5ffd5b610e1f3384846118b9565b6040516001600160a01b0384169033907ff37f546c25e850257cc0c94f92bec94a17e2f0e884ddda268a25d8144b70eb6a905f90a35060015b92915050565b5f5f610e9f8585858080601f0160208091040260200160405190810160405280939291908181526020018383808284375f9201919091525061190592505050565b90505f610ed68260035f610eb1611483565b6001600160a01b03166001600160a01b031681526020019081526020015f205461196b565b9050610eeb610ee3611483565b888484611999565b5060019695505050505050565b5f610f02826118ae565b610f0a575f5ffd5b335f90815260036020526040812054610f2490849061196b565b9050610f3233858584611999565b5060019392505050565b5f5f83118015610f4e57506008548311155b610f9a5760405162461bcd60e51b815260206004820152601060248201527f496e76616c696420736e617073686f740000000000000000000000000000000060448201526064016108cb565b6001600160a01b0382165f90815260096020526040902080545b8015611041578482610fc7600184612a8b565b81548110610fd757610fd7612a9e565b905f5260205f2090600202015f01541161102f575f82610ff8600184612a8b565b8154811061100857611008612a9e565b905f5260205f2090600202016001015490506110248133611bb3565b509250610e58915050565b8061103981612ab2565b915050610fb4565b506001600160a01b0383165f908152600660205260409020546110648133611bb3565b50949350505050565b5f611076611bcf565b905090565b6001805461069d90612901565b5f5f6110c98585858080601f0160208091040260200160405190810160405280939291908181526020018383808284375f9201919091525061190592505050565b90505f6110de886110d8611483565b84611c03565b90506110ec88888484611999565b6001925050505b95945050505050565b5f5f61113d8585858080601f0160208091040260200160405190810160405280939291908181526020018383808284375f9201919091525061190592505050565b905061115161114a611483565b87836118b9565b856001600160a01b0316611163611483565b6001600160a01b03167ff37f546c25e850257cc0c94f92bec94a17e2f0e884ddda268a25d8144b70eb6a60405160405180910390a350600195945050505050565b5f6111ae826118ae565b6111b6575f5ffd5b5f6111c2853385611c03565b90506111d085858584611999565b60019150505b9392505050565b6001600160a01b0381165f908152600660205260408120546111ff8133611bb3565b5092915050565b5f807ff0c57e16840df040f15088dc2f81fe391c3923bec73e23a9662efc9c229c6a00610e58565b604080516060810182525f8082526020820181905291810191909152466001036112c7575060408051606080820183525f8083526020808401829052928401528251908101835273ca2e8f1f656cd25c01f05d0b243ab1ecd4a8ffb6815273d82385dada1ae3e969447f20a3164f6213100e75918101919091527377627828a55156b04ac0dc0eb30467f1a552bb039181019190915290565b4662aa36a703611346575060408051606080820183525f8083526020808401829052928401528251908101835273f0ffdc93b7e186bc2f8cb3daa75d86d1930a433d81527392c920834ec8941d2c77d188936e1f7a6f49c1279181019190915273be0e383937d564d7ff0bc3b46c51f0bf8d5c311a9181019190915290565b46617a69036113c4575060408051606080820183525f808352602080840182905292840152825190810183527350157cffd6bbfa2dece204a89ec419c23ef5755d815273e3a9105a3a932253a70f126eb1e3b589c643dd249181019190915273be0e383937d564d7ff0bc3b46c51f0bf8d5c311a9181019190915290565b6040516373cac13b60e01b815260040160405180910390fd5b80515f516020612b645f395f51905f52805473ffffffffffffffffffffffffffffffffffffffff199081166001600160a01b039384161790915560208301517f9e7b61f58c47dc699ac88507c4f5bb9f121c03808c5676a8078fe583e46497018054831691841691909117905560408301517f9e7b61f58c47dc699ac88507c4f5bb9f121c03808c5676a8078fe583e46497028054909216921691909117905550565b50565b5f336001600160a01b037f0000000000000000000000000000000000000000000000000000000000000000161480156114bd575060143610155b156114cf575060131936013560601c90565b503390565b5f826114e6576114e35f611c94565b92505b6111d68367ffffffffffffffff84166001611caa565b5f8161150e5761150b5f611c94565b91505b6115188230611d7a565b5090565b5f8261152e5761152b5f611c94565b92505b6115388383611d7a565b5090919050565b6001600160a01b038082165f90815260056020526040812054909116801561153857806111d6565b6008545f036115735750565b6001600160a01b0381165f908152600960205260409020805415806115c75750600854815482906115a690600190612a8b565b815481106115b6576115b6612a9e565b905f5260205f2090600202015f0154105b15610c055760408051808201825260085481526001600160a01b0384165f9081526006602090815292812054838301908152845460018181018755868452949092209251600290920290920190815590519101555050565b306001600160a01b037f00000000000000000000000000000000000000000000000000000000000000001614806116b857507f00000000000000000000000000000000000000000000000000000000000000006001600160a01b03166116ac7f360894a13ba1a3210667c828492db98dca3e2076cc3735a920a3ca505d382bbc546001600160a01b031690565b6001600160a01b031614155b156116d65760405163703e46dd60e11b815260040160405180910390fd5b565b600254600160401b90046001600160a01b03166116f3611483565b6001600160a01b0316146114805760405162461bcd60e51b81526020600482015260096024820152682737ba1037bbb732b960b91b60448201526064016108cb565b816001600160a01b03166352d1902d6040518163ffffffff1660e01b8152600401602060405180830381865afa92505050801561178f575060408051601f3d908101601f1916820190925261178c91810190612ac7565b60015b6117b757604051634c9c8ce360e01b81526001600160a01b03831660048201526024016108cb565b7f360894a13ba1a3210667c828492db98dca3e2076cc3735a920a3ca505d382bbc81146117fa57604051632a87526960e21b8152600481018290526024016108cb565b6118048383611dee565b505050565b306001600160a01b037f000000000000000000000000000000000000000000000000000000000000000016146116d65760405163703e46dd60e11b815260040160405180910390fd5b5f82611864576118615f611c94565b92505b81611875576118725f611c94565b91505b6111d683835f611e43565b5f826118925761188f5f611c94565b92505b816118a3576118a05f611c94565b91505b6111d683835f611caa565b5f610e588233611ecd565b6001600160a01b038084165f9081526004602090815260408083209386168352929052208190556118e9816114fc565b506118f4818461151c565b506118ff818361151c565b50505050565b5f81515f146119215761191a83836005611f59565b9050610e58565b825f81900361193b576119335f611c94565b915050610e58565b6119458133611ecd565b61191a57604051630276b5d960e01b8152600481018290523360248201526044016108cb565b5f8261197d5761197a5f611c94565b92505b8161198e5761198b5f611c94565b91505b6111d683835f612066565b5f6119ad82846119a85f611c94565b6120f0565b6001600160a01b0385165f908152600760209081526040808320805460ff191660011790556003909152812054919250906119e89083611880565b6001600160a01b0386165f9081526003602052604090208190559050611a0d816114fc565b50611a18818661151c565b506001600160a01b0386165f90815260036020526040812054611a3b9084611852565b6001600160a01b0388165f9081526003602052604090208190559050611a60816114fc565b50611a6b818861151c565b505f611a768861153f565b90505f611a828861153f565b9050611a8d82611567565b611a9681611567565b6001600160a01b0382165f90815260066020526040902054611ab89086611852565b6001600160a01b0383165f908152600660205260409020819055611adb906114fc565b506001600160a01b0382165f90815260066020526040902054611afe908361151c565b506001600160a01b0381165f90815260066020526040902054611b219086611880565b6001600160a01b0382165f908152600660205260409020819055611b44906114fc565b506001600160a01b0381165f90815260066020526040902054611b67908261151c565b50876001600160a01b0316896001600160a01b03167f4853ae1b4d437c4255ac16cd3ceda3465975023f27cb141584cd9d44440fed8260405160405180910390a3505050505050505050565b5f82611bc557611bc25f611c94565b92505b611538838361212f565b5f46600103611bde5750600190565b4662aa36a703611bef575061271190565b46617a6903611bfe57505f1990565b505f90565b6001600160a01b038084165f90815260046020908152604080832093861683529290529081205481611c35848361196b565b6001600160a01b0387165f9081526003602052604081205491925090611c5c90869061196b565b90505f611c698284612175565b9050611c898888611c8484611c7e898c611852565b896120f0565b6118b9565b979650505050505050565b5f610e588267ffffffffffffffff1660056121a3565b5f5f8215611cbd5750600160f81b611cc0565b505f5b7f9e7b61f58c47dc699ac88507c4f5bb9f121c03808c5676a8078fe583e46497015460405163022f65e760e31b815260048101879052602481018690526001600160f81b0319831660448201525f516020612b645f395f51905f52916001600160a01b03169063117b2f38906064015b6020604051808303815f875af1158015611d4c573d5f5f3e3d5ffd5b505050506040513d601f19601f82011682018060405250810190611d709190612ac7565b9695505050505050565b5f516020612b645f395f51905f528054604051635ca4b5b160e11b8152600481018590526001600160a01b0384811660248301529091169063b9496b62906044015b5f604051808303815f87803b158015611dd3575f5ffd5b505af1158015611de5573d5f5f3e3d5ffd5b50505050505050565b611df782612245565b6040516001600160a01b038316907fbc7cd75a20ee27fd9adebab32041f755214dbc6bffa90cc0225b39da2e5c2d3b905f90a2805115611e3b5761180482826122c8565b610c05612359565b5f5f8215611e565750600160f81b611e59565b505f5b7f9e7b61f58c47dc699ac88507c4f5bb9f121c03808c5676a8078fe583e4649701546040516303056db360e31b815260048101879052602481018690526001600160f81b0319831660448201525f516020612b645f395f51905f52916001600160a01b03169063182b6d9890606401611d30565b5f805f516020612b645f395f51905f5280546040516382027b6d60e01b8152600481018790526001600160a01b0386811660248301529293509116906382027b6d90604401602060405180830381865afa158015611f2d573d5f5f3e3d5ffd5b505050506040513d601f19601f82011682018060405250810190611f519190612ade565b949350505050565b7f9e7b61f58c47dc699ac88507c4f5bb9f121c03808c5676a8078fe583e46497015460405163045fc19560e11b81525f915f516020612b645f395f51905f52916001600160a01b03909116906308bf832a90611fbf908890339089908990600401612b19565b6020604051808303815f875af1158015611fdb573d5f5f3e3d5ffd5b505050506040513d601f19601f82011682018060405250810190611fff9190612ac7565b8154604051630f8e573b60e21b8152600481018390523360248201529193506001600160a01b031690633e395cec906044015f604051808303815f87803b158015612048575f5ffd5b505af115801561205a573d5f5f3e3d5ffd5b50505050509392505050565b5f5f82156120795750600160f81b61207c565b505f5b7f9e7b61f58c47dc699ac88507c4f5bb9f121c03808c5676a8078fe583e464970154604051631d44e90160e21b815260048101879052602481018690526001600160f81b0319831660448201525f516020612b645f395f51905f52916001600160a01b031690637513a40490606401611d30565b5f83612102576120ff5f612378565b93505b82612113576121105f611c94565b92505b81612124576121215f611c94565b91505b611f51848484612393565b5f516020612b645f395f51905f528054604051630f8e573b60e21b8152600481018590526001600160a01b03848116602483015290911690633e395cec90604401611dbc565b5f82612187576121845f612378565b92505b81612198576121955f612378565b91505b6111d683835f612420565b7f9e7b61f58c47dc699ac88507c4f5bb9f121c03808c5676a8078fe583e464970154604051639cd07acb60e01b81525f915f516020612b645f395f51905f52916001600160a01b0390911690639cd07acb906122059087908790600401612b4f565b6020604051808303815f875af1158015612221573d5f5f3e3d5ffd5b505050506040513d601f19601f82011682018060405250810190611f519190612ac7565b806001600160a01b03163b5f0361227a57604051634c9c8ce360e01b81526001600160a01b03821660048201526024016108cb565b7f360894a13ba1a3210667c828492db98dca3e2076cc3735a920a3ca505d382bbc805473ffffffffffffffffffffffffffffffffffffffff19166001600160a01b0392909216919091179055565b60605f6122d584846124aa565b90508080156122f657505f3d11806122f657505f846001600160a01b03163b115b15612303576119336124bd565b801561232d57604051639996b31560e01b81526001600160a01b03851660048201526024016108cb565b3d156123405761233b6124d6565b6111ff565b60405163d6bda27560e01b815260040160405180910390fd5b34156116d65760405163b398979f60e01b815260040160405180910390fd5b5f610e5882612387575f61238a565b60015b60ff165f6121a3565b5f805f516020612b645f395f51905f526001810154604051637702dcff60e01b81526004810188905260248101879052604481018690529192506001600160a01b031690637702dcff906064016020604051808303815f875af11580156123fc573d5f5f3e3d5ffd5b505050506040513d601f19601f820116820180604052508101906110f39190612ac7565b5f5f82156124335750600160f81b612436565b505f5b7f9e7b61f58c47dc699ac88507c4f5bb9f121c03808c5676a8078fe583e46497015460405163d99882d560e01b815260048101879052602481018690526001600160f81b0319831660448201525f516020612b645f395f51905f52916001600160a01b03169063d99882d590606401611d30565b5f5f5f835160208501865af49392505050565b6040513d81523d5f602083013e3d602001810160405290565b6040513d5f823e3d81fd5b5f81518084528060208401602086015e5f602082860101526020601f19601f83011685010191505092915050565b602081525f6111d660208301846124e1565b634e487b7160e01b5f52604160045260245ffd5b5f5f67ffffffffffffffff84111561254f5761254f612521565b50604051601f19601f85018116603f0116810181811067ffffffffffffffff8211171561257e5761257e612521565b604052838152905080828401851015612595575f5ffd5b838360208301375f60208583010152509392505050565b5f82601f8301126125bb575f5ffd5b6111d683833560208501612535565b80356001600160a01b03811681146125e0575f5ffd5b919050565b5f5f5f606084860312156125f7575f5ffd5b833567ffffffffffffffff81111561260d575f5ffd5b612619868287016125ac565b935050602084013567ffffffffffffffff811115612635575f5ffd5b612641868287016125ac565b925050612650604085016125ca565b90509250925092565b5f5f6040838503121561266a575f5ffd5b612673836125ca565b9150602083013567ffffffffffffffff8116811461268f575f5ffd5b809150509250929050565b8015158114611480575f5ffd5b5f5f604083850312156126b8575f5ffd5b6126c1836125ca565b9150602083013561268f8161269a565b5f5f604083850312156126e2575f5ffd5b6126eb836125ca565b9150602083013567ffffffffffffffff811115612706575f5ffd5b8301601f81018513612716575f5ffd5b61272585823560208401612535565b9150509250929050565b5f6020828403121561273f575f5ffd5b6111d6826125ca565b5f5f60408385031215612759575f5ffd5b612762836125ca565b946020939093013593505050565b5f5f83601f840112612780575f5ffd5b50813567ffffffffffffffff811115612797575f5ffd5b6020830191508360208285010111156127ae575f5ffd5b9250929050565b5f5f5f5f606085870312156127c8575f5ffd5b6127d1856125ca565b935060208501359250604085013567ffffffffffffffff8111156127f3575f5ffd5b6127ff87828801612770565b95989497509550505050565b5f5f6040838503121561281c575f5ffd5b8235915061282c602084016125ca565b90509250929050565b5f5f5f5f5f60808688031215612849575f5ffd5b612852866125ca565b9450612860602087016125ca565b935060408601359250606086013567ffffffffffffffff811115612882575f5ffd5b61288e88828901612770565b969995985093965092949392505050565b5f5f5f606084860312156128b1575f5ffd5b6128ba846125ca565b92506128c8602085016125ca565b929592945050506040919091013590565b5f5f604083850312156128ea575f5ffd5b6128f3836125ca565b915061282c602084016125ca565b600181811c9082168061291557607f821691505b60208210810361293357634e487b7160e01b5f52602260045260245ffd5b50919050565b601f82111561180457805f5260205f20601f840160051c8101602085101561295e5750805b601f840160051c820191505b8181101561297d575f815560010161296a565b5050505050565b815167ffffffffffffffff81111561299e5761299e612521565b6129b2816129ac8454612901565b84612939565b6020601f8211600181146129e4575f83156129cd5750848201515b5f19600385901b1c1916600184901b17845561297d565b5f84815260208120601f198516915b82811015612a1357878501518255602094850194600190920191016129f3565b5084821015612a3057868401515f19600387901b60f8161c191681555b50505050600190811b01905550565b634e487b7160e01b5f52601160045260245ffd5b5f60018201612a6457612a64612a3f565b5060010190565b67ffffffffffffffff8181168382160190811115610e5857610e58612a3f565b81810381811115610e5857610e58612a3f565b634e487b7160e01b5f52603260045260245ffd5b5f81612ac057612ac0612a3f565b505f190190565b5f60208284031215612ad7575f5ffd5b5051919050565b5f60208284031215612aee575f5ffd5b81516111d68161269a565b60548110612b1557634e487b7160e01b5f52602160045260245ffd5b9052565b8481526001600160a01b0384166020820152608060408201525f612b4060808301856124e1565b90506110f36060830184612af9565b828152604081016111d66020830184612af956fe9e7b61f58c47dc699ac88507c4f5bb9f121c03808c5676a8078fe583e4649700a164736f6c634300081b000a",
  "devdoc": {
    "errors": {
      "AddressEmptyCode(address)": [
        {
          "details": "There's no code at `target` (it is not a contract)."
        }
      ],
      "ERC1967InvalidImplementation(address)": [
        {
          "details": "The `implementation` of the proxy is invalid."
        }
      ],
      "ERC1967NonPayable()": [
        {
          "details": "An upgrade function sees `msg.value > 0` that may be lost."
        }
      ],
      "FailedCall()": [
        {
          "details": "A call to an address target failed. The target may have reverted."
        }
      ],
      "InvalidInitialization()": [
        {
          "details": "The contract is already initialized."
        }
      ],
      "NotInitializing()": [
        {
          "details": "The contract is not initializing."
        }
      ],
      "UUPSUnauthorizedCallContext()": [
        {
          "details": "The call is from an unauthorized context."
        }
      ],
      "UUPSUnsupportedProxiableUUID(bytes32)": [
        {
          "details": "The storage `slot` is unsupported as a UUID."
        }
      ]
    },
    "events": {
      "Initialized(uint64)": {
        "details": "Triggered when the contract has been initialized or reinitialized."
      },
      "Upgraded(address)": {
        "details": "Emitted when the implementation is upgraded."
      }
    },
    "kind": "dev",
    "methods": {
      "constructor": {
        "custom:oz-upgrades-unsafe-allow": "constructor"
      },
      "initialize(string,string,address)": {
        "params": {
          "name_": "Token name",
          "symbol_": "Token symbol"
        }
      },
      "proxiableUUID()": {
        "details": "Implementation of the ERC-1822 {proxiableUUID} function. This returns the storage slot used by the implementation. It is used to validate the implementation's compatibility when performing an upgrade. IMPORTANT: A proxy pointing at a proxiable contract should not be considered proxiable itself, because this risks bricking a proxy that upgrades to it, by delegating to itself until out of gas. Thus it is critical that this function revert if invoked through a proxy. This is guaranteed by the `notDelegated` modifier."
      },
      "upgradeToAndCall(address,bytes)": {
        "custom:oz-upgrades-unsafe-allow-reachable": "delegatecall",
        "details": "Upgrade the implementation of the proxy to `newImplementation`, and subsequently execute the function call encoded in `data`. Calls {_authorizeUpgrade}. Emits an {Upgraded} event."
      }
    },
    "title": "EncryptedGovernanceToken",
    "version": 1
  },
  "userdoc": {
    "errors": {
      "SenderNotAllowedToUseHandle(bytes32,address)": [
        {
          "notice": "Returned if the sender is not allowed to use the handle."
        }
      ],
      "ZamaProtocolUnsupported()": [
        {
          "notice": "Returned if the Zama protocol is not supported on the current chain"
        }
      ]
    },
    "kind": "user",
    "methods": {
      "initialize(string,string,address)": {
        "notice": "Initialize the token (replaces constructor for proxy deployments)"
      },
      "version()": {
        "notice": "Returns the implementation version"
      }
    },
    "notice": "UUPS-upgradeable ERC20-like governance token with encrypted balances, voting power snapshots, delegation, and meta-transaction support.",
    "version": 1
  },
  "storageLayout": {
    "storage": [
      {
        "astId": 44400,
        "contract": "contracts/dao/EncryptedGovernanceToken.sol:EncryptedGovernanceToken",
        "label": "name",
        "offset": 0,
        "slot": "0",
        "type": "t_string_storage"
      },
      {
        "astId": 44402,
        "contract": "contracts/dao/EncryptedGovernanceToken.sol:EncryptedGovernanceToken",
        "label": "symbol",
        "offset": 0,
        "slot": "1",
        "type": "t_string_storage"
      },
      {
        "astId": 44407,
        "contract": "contracts/dao/EncryptedGovernanceToken.sol:EncryptedGovernanceToken",
        "label": "totalSupply",
        "offset": 0,
        "slot": "2",
        "type": "t_uint64"
      },
      {
        "astId": 44409,
        "contract": "contracts/dao/EncryptedGovernanceToken.sol:EncryptedGovernanceToken",
        "label": "owner",
        "offset": 8,
        "slot": "2",
        "type": "t_address"
      },
      {
        "astId": 44414,
        "contract": "contracts/dao/EncryptedGovernanceToken.sol:EncryptedGovernanceToken",
        "label": "_balances",
        "offset": 0,
        "slot": "3",
        "type": "t_mapping(t_address,t_userDefinedValueType(euint64)48588)"
      },
      {
        "astId": 44421,
        "contract": "contracts/dao/EncryptedGovernanceToken.sol:EncryptedGovernanceToken",
        "label": "_allowances",
        "offset": 0,
        "slot": "4",
        "type": "t_mapping(t_address,t_mapping(t_address,t_userDefinedValueType(euint64)48588))"
      },
      {
        "astId": 44425,
        "contract": "contracts/dao/EncryptedGovernanceToken.sol:EncryptedGovernanceToken",
        "label": "delegates",
        "offset": 0,
        "slot": "5",
        "type": "t_mapping(t_address,t_address)"
      },
      {
        "astId": 44430,
        "contract": "contracts/dao/EncryptedGovernanceToken.sol:EncryptedGovernanceToken",
        "label": "_votingPower",
        "offset": 0,
        "slot": "6",
        "type": "t_mapping(t_address,t_userDefinedValueType(euint64)48588)"
      },
      {
        "astId": 44434,
        "contract": "contracts/dao/EncryptedGovernanceToken.sol:EncryptedGovernanceToken",
        "label": "_isTokenHolder",
        "offset": 0,
        "slot": "7",
        "type": "t_mapping(t_address,t_bool)"
      },
      {
        "astId": 44436,
        "contract": "contracts/dao/EncryptedGovernanceToken.sol:EncryptedGovernanceToken",
        "label": "currentSnapshotId",
        "offset": 0,
        "slot": "8",
        "type": "t_uint256"
      },
      {
        "astId": 44442,
        "contract": "contracts/dao/EncryptedGovernanceToken.sol:EncryptedGovernanceToken",
        "label": "_vpCheckpoints",
        "offset": 0,
        "slot": "9",
        "type": "t_mapping(t_address,t_array(t_struct(VotingPowerCheckpoint)44398_storage)dyn_storage)"
      },
      {
        "astId": 44446,
        "contract": "contracts/dao/EncryptedGovernanceToken.sol:EncryptedGovernanceToken",
        "label": "isSnapshotCreator",
        "offset": 0,
        "slot": "10",
        "type": "t_mapping(t_address,t_bool)"
      }
    ],
    "types": {
      "t_address": {
        "encoding": "inplace",
        "label": "address",
        "numberOfBytes": "20"
      },
      "t_array(t_struct(VotingPowerCheckpoint)44398_storage)dyn_storage": {
        "base": "t_struct(VotingPowerCheckpoint)44398_storage",
        "encoding": "dynamic_array",
        "label": "struct EncryptedGovernanceToken.VotingPowerCheckpoint[]",
        "numberOfBytes": "32"
      },
      "t_bool": {
        "encoding": "inplace",
        "label": "bool",
        "numberOfBytes": "1"
      },
      "t_mapping(t_address,t_address)": {
        "encoding": "mapping",
        "key": "t_address",
        "label": "mapping(address => address)",
        "numberOfBytes": "32",
        "value": "t_address"
      },
      "t_mapping(t_address,t_array(t_struct(VotingPowerCheckpoint)44398_storage)dyn_storage)": {
        "encoding": "mapping",
        "key": "t_address",
        "label": "mapping(address => struct EncryptedGovernanceToken.VotingPowerCheckpoint[])",
        "numberOfBytes": "32",
        "value": "t_array(t_struct(VotingPowerCheckpoint)44398_storage)dyn_storage"
      },
      "t_mapping(t_address,t_bool)": {
        "encoding": "mapping",
        "key": "t_address",
        "label": "mapping(address => bool)",
        "numberOfBytes": "32",
        "value": "t_bool"
      },
      "t_mapping(t_address,t_mapping(t_address,t_userDefinedValueType(euint64)48588))": {
        "encoding": "mapping",
        "key": "t_address",
        "label": "mapping(address => mapping(address => euint64))",
        "numberOfBytes": "32",
        "value": "t_mapping(t_address,t_userDefinedValueType(euint64)48588)"
      },
      "t_mapping(t_address,t_userDefinedValueType(euint64)48588)": {
        "encoding": "mapping",
        "key": "t_address",
        "label": "mapping(address => euint64)",
        "numberOfBytes": "32",
        "value": "t_userDefinedValueType(euint64)48588"
      },
      "t_string_storage": {
        "encoding": "bytes",
        "label": "string",
        "numberOfBytes": "32"
      },
      "t_struct(VotingPowerCheckpoint)44398_storage": {
        "encoding": "inplace",
        "label": "struct EncryptedGovernanceToken.VotingPowerCheckpoint",
        "members": [
          {
            "astId": 44394,
            "contract": "contracts/dao/EncryptedGovernanceToken.sol:EncryptedGovernanceToken",
            "label": "snapshotId",
            "offset": 0,
            "slot": "0",
            "type": "t_uint256"
          },
          {
            "astId": 44397,
            "contract": "contracts/dao/EncryptedGovernanceToken.sol:EncryptedGovernanceToken",
            "label": "power",
            "offset": 0,
            "slot": "1",
            "type": "t_userDefinedValueType(euint64)48588"
          }
        ],
        "numberOfBytes": "64"
      },
      "t_uint256": {
        "encoding": "inplace",
        "label": "uint256",
        "numberOfBytes": "32"
      },
      "t_uint64": {
        "encoding": "inplace",
        "label": "uint64",
        "numberOfBytes": "8"
      },
      "t_userDefinedValueType(euint64)48588": {
        "encoding": "inplace",
        "label": "euint64",
        "numberOfBytes": "32"
      }
    }
  }
}